No.     Time           Source                Destination           Protocol Length Info
      1 0.000000       host                  1.6.0                 USB      36     URB_CONTROL out

Frame 1: 36 bytes on wire (288 bits), 36 bytes captured (288 bits) on interface 0
USB URB
    [Source: host]
    [Destination: 1.6.0]
    USBPcap pseudoheader length: 28
    IRP ID: 0xffff80030959eaf0
    IRP USBD_STATUS: USBD_STATUS_SUCCESS (0x00000000)
    URB Function: URB_FUNCTION_CONTROL_TRANSFER (0x0008)
    IRP information: 0x00, Direction: FDO -> PDO
        0000 000. = Reserved: 0x00
        .... ...0 = Direction: FDO -> PDO (0x0)
    URB bus id: 1
    Device address: 6
    Endpoint: 0x00, Direction: OUT
        0... .... = Direction: OUT (0)
        .... 0000 = Endpoint number: 0
    URB transfer type: URB_CONTROL (0x02)
    Packet Data Length: 8
    [Response in: 2]
    Control transfer stage: Setup (0)
    [bInterfaceClass: Unknown (0xffff)]
URB setup
    bmRequestType: 0x41
    bRequest: 0
    wValue: 0xffff
    wIndex: 0 (0x0000)
    wLength: 0

0000  1c 00 f0 ea 59 09 03 80 ff ff 00 00 00 00 08 00   ....Y...........
0010  00 01 00 06 00 00 02 08 00 00 00 00 41 00 ff ff   ............A...
0020  00 00 00 00                                       ....

No.     Time           Source                Destination           Protocol Length Info
      2 0.000116       1.6.0                 host                  USB      28     GET STATUS Status

Frame 2: 28 bytes on wire (224 bits), 28 bytes captured (224 bits) on interface 0
USB URB
    [Source: 1.6.0]
    [Destination: host]
    USBPcap pseudoheader length: 28
    IRP ID: 0xffff80030959eaf0
    IRP USBD_STATUS: USBD_STATUS_SUCCESS (0x00000000)
    URB Function: URB_FUNCTION_CONTROL_TRANSFER (0x0008)
    IRP information: 0x01, Direction: PDO -> FDO
        0000 000. = Reserved: 0x00
        .... ...1 = Direction: PDO -> FDO (0x1)
    URB bus id: 1
    Device address: 6
    Endpoint: 0x00, Direction: OUT
        0... .... = Direction: OUT (0)
        .... 0000 = Endpoint number: 0
    URB transfer type: URB_CONTROL (0x02)
    Packet Data Length: 0
    [Request in: 1]
    [Time from request: 0.000116000 seconds]
    Control transfer stage: Status (2)

0000  1c 00 f0 ea 59 09 03 80 ff ff 00 00 00 00 08 00   ....Y...........
0010  01 01 00 06 00 00 02 00 00 00 00 02               ............

No.     Time           Source                Destination           Protocol Length Info
      3 0.000124       host                  1.6.0                 USB      36     URB_CONTROL in

Frame 3: 36 bytes on wire (288 bits), 36 bytes captured (288 bits) on interface 0
USB URB
    [Source: host]
    [Destination: 1.6.0]
    USBPcap pseudoheader length: 28
    IRP ID: 0xffff80030a5f6460
    IRP USBD_STATUS: USBD_STATUS_SUCCESS (0x00000000)
    URB Function: URB_FUNCTION_CONTROL_TRANSFER (0x0008)
    IRP information: 0x00, Direction: FDO -> PDO
        0000 000. = Reserved: 0x00
        .... ...0 = Direction: FDO -> PDO (0x0)
    URB bus id: 1
    Device address: 6
    Endpoint: 0x80, Direction: IN
        1... .... = Direction: IN (1)
        .... 0000 = Endpoint number: 0
    URB transfer type: URB_CONTROL (0x02)
    Packet Data Length: 8
    [Response in: 4]
    Control transfer stage: Setup (0)
    [bInterfaceClass: Unknown (0xffff)]
URB setup
    bmRequestType: 0xc1
    bRequest: 8
    wValue: 0x0000
    wIndex: 0 (0x0000)
    wLength: 1

0000  1c 00 60 64 5f 0a 03 80 ff ff 00 00 00 00 08 00   ..`d_...........
0010  00 01 00 06 00 80 02 08 00 00 00 00 c1 08 00 00   ................
0020  00 00 01 00                                       ....

No.     Time           Source                Destination           Protocol Length Info
      4 0.000242       1.6.0                 host                  USB      29     URB_CONTROL in

Frame 4: 29 bytes on wire (232 bits), 29 bytes captured (232 bits) on interface 0
USB URB
    [Source: 1.6.0]
    [Destination: host]
    USBPcap pseudoheader length: 28
    IRP ID: 0xffff80030a5f6460
    IRP USBD_STATUS: USBD_STATUS_SUCCESS (0x00000000)
    URB Function: URB_FUNCTION_CONTROL_TRANSFER (0x0008)
    IRP information: 0x01, Direction: PDO -> FDO
        0000 000. = Reserved: 0x00
        .... ...1 = Direction: PDO -> FDO (0x1)
    URB bus id: 1
    Device address: 6
    Endpoint: 0x80, Direction: IN
        1... .... = Direction: IN (1)
        .... 0000 = Endpoint number: 0
    URB transfer type: URB_CONTROL (0x02)
    Packet Data Length: 1
    [Request in: 3]
    [Time from request: 0.000118000 seconds]
    Control transfer stage: Data (1)
    [bInterfaceClass: Unknown (0xffff)]
CONTROL response data: 00

0000  1c 00 60 64 5f 0a 03 80 ff ff 00 00 00 00 08 00   ..`d_...........
0010  01 01 00 06 00 80 02 01 00 00 00 01 00            .............

No.     Time           Source                Destination           Protocol Length Info
      5 0.000243       1.6.0                 host                  USB      28     GET CONFIGURATION Status

Frame 5: 28 bytes on wire (224 bits), 28 bytes captured (224 bits) on interface 0
USB URB
    [Source: 1.6.0]
    [Destination: host]
    USBPcap pseudoheader length: 28
    IRP ID: 0xffff80030a5f6460
    IRP USBD_STATUS: USBD_STATUS_SUCCESS (0x00000000)
    URB Function: URB_FUNCTION_CONTROL_TRANSFER (0x0008)
    IRP information: 0x01, Direction: PDO -> FDO
        0000 000. = Reserved: 0x00
        .... ...1 = Direction: PDO -> FDO (0x1)
    URB bus id: 1
    Device address: 6
    Endpoint: 0x80, Direction: IN
        1... .... = Direction: IN (1)
        .... 0000 = Endpoint number: 0
    URB transfer type: URB_CONTROL (0x02)
    Packet Data Length: 0
    [Request in: 3]
    [Time from request: 0.000119000 seconds]
    Control transfer stage: Status (2)

0000  1c 00 60 64 5f 0a 03 80 ff ff 00 00 00 00 08 00   ..`d_...........
0010  01 01 00 06 00 80 02 00 00 00 00 02               ............

No.     Time           Source                Destination           Protocol Length Info
      6 0.000247       host                  1.6.0                 USB      36     URB_CONTROL in

Frame 6: 36 bytes on wire (288 bits), 36 bytes captured (288 bits) on interface 0
USB URB
    [Source: host]
    [Destination: 1.6.0]
    USBPcap pseudoheader length: 28
    IRP ID: 0xffff80030a5f6460
    IRP USBD_STATUS: USBD_STATUS_SUCCESS (0x00000000)
    URB Function: URB_FUNCTION_CONTROL_TRANSFER (0x0008)
    IRP information: 0x00, Direction: FDO -> PDO
        0000 000. = Reserved: 0x00
        .... ...0 = Direction: FDO -> PDO (0x0)
    URB bus id: 1
    Device address: 6
    Endpoint: 0x80, Direction: IN
        1... .... = Direction: IN (1)
        .... 0000 = Endpoint number: 0
    URB transfer type: URB_CONTROL (0x02)
    Packet Data Length: 8
    [Response in: 7]
    Control transfer stage: Setup (0)
URB setup
    bmRequestType: 0xc0
    bRequest: 16
    wValue: 0x0000
    wIndex: 0 (0x0000)
    wLength: 20

0000  1c 00 60 64 5f 0a 03 80 ff ff 00 00 00 00 08 00   ..`d_...........
0010  00 01 00 06 00 80 02 08 00 00 00 00 c0 10 00 00   ................
0020  00 00 14 00                                       ....

No.     Time           Source                Destination           Protocol Length Info
      7 0.000410       1.6.0                 host                  USB      47     URB_CONTROL in

Frame 7: 47 bytes on wire (376 bits), 47 bytes captured (376 bits) on interface 0
USB URB
    [Source: 1.6.0]
    [Destination: host]
    USBPcap pseudoheader length: 28
    IRP ID: 0xffff80030a5f6460
    IRP USBD_STATUS: USBD_STATUS_SUCCESS (0x00000000)
    URB Function: URB_FUNCTION_CONTROL_TRANSFER (0x0008)
    IRP information: 0x01, Direction: PDO -> FDO
        0000 000. = Reserved: 0x00
        .... ...1 = Direction: PDO -> FDO (0x1)
    URB bus id: 1
    Device address: 6
    Endpoint: 0x80, Direction: IN
        1... .... = Direction: IN (1)
        .... 0000 = Endpoint number: 0
    URB transfer type: URB_CONTROL (0x02)
    Packet Data Length: 19
    [Request in: 6]
    [Time from request: 0.000163000 seconds]
    Control transfer stage: Data (1)
CONTROL response data: 00000000000000000000000000000000000000

0000  1c 00 60 64 5f 0a 03 80 ff ff 00 00 00 00 08 00   ..`d_...........
0010  01 01 00 06 00 80 02 13 00 00 00 01 00 00 00 00   ................
0020  00 00 00 00 00 00 00 00 00 00 00 00 00 00 00      ...............

No.     Time           Source                Destination           Protocol Length Info
      8 0.000411       1.6.0                 host                  USB      28     Unknown type 10 Status

Frame 8: 28 bytes on wire (224 bits), 28 bytes captured (224 bits) on interface 0
USB URB
    [Source: 1.6.0]
    [Destination: host]
    USBPcap pseudoheader length: 28
    IRP ID: 0xffff80030a5f6460
    IRP USBD_STATUS: USBD_STATUS_SUCCESS (0x00000000)
    URB Function: URB_FUNCTION_CONTROL_TRANSFER (0x0008)
    IRP information: 0x01, Direction: PDO -> FDO
        0000 000. = Reserved: 0x00
        .... ...1 = Direction: PDO -> FDO (0x1)
    URB bus id: 1
    Device address: 6
    Endpoint: 0x80, Direction: IN
        1... .... = Direction: IN (1)
        .... 0000 = Endpoint number: 0
    URB transfer type: URB_CONTROL (0x02)
    Packet Data Length: 0
    [Request in: 6]
    [Time from request: 0.000164000 seconds]
    Control transfer stage: Status (2)

0000  1c 00 60 64 5f 0a 03 80 ff ff 00 00 00 00 08 00   ..`d_...........
0010  01 01 00 06 00 80 02 00 00 00 00 02               ............

No.     Time           Source                Destination           Protocol Length Info
      9 0.000416       host                  1.6.0                 USB      36     URB_CONTROL out

Frame 9: 36 bytes on wire (288 bits), 36 bytes captured (288 bits) on interface 0
USB URB
    [Source: host]
    [Destination: 1.6.0]
    USBPcap pseudoheader length: 28
    IRP ID: 0xffff80030a5f6460
    IRP USBD_STATUS: USBD_STATUS_SUCCESS (0x00000000)
    URB Function: URB_FUNCTION_CONTROL_TRANSFER (0x0008)
    IRP information: 0x00, Direction: FDO -> PDO
        0000 000. = Reserved: 0x00
        .... ...0 = Direction: FDO -> PDO (0x0)
    URB bus id: 1
    Device address: 6
    Endpoint: 0x00, Direction: OUT
        0... .... = Direction: OUT (0)
        .... 0000 = Endpoint number: 0
    URB transfer type: URB_CONTROL (0x02)
    Packet Data Length: 8
    [Response in: 10]
    Control transfer stage: Setup (0)
    [bInterfaceClass: Unknown (0xffff)]
URB setup
    bmRequestType: 0x41
    bRequest: 3
    wValue: 0x0700
    wIndex: 0 (0x0000)
    wLength: 0

0000  1c 00 60 64 5f 0a 03 80 ff ff 00 00 00 00 08 00   ..`d_...........
0010  00 01 00 06 00 00 02 08 00 00 00 00 41 03 00 07   ............A...
0020  00 00 00 00                                       ....

No.     Time           Source                Destination           Protocol Length Info
     10 0.000517       1.6.0                 host                  USB      28     SET FEATURE Status

Frame 10: 28 bytes on wire (224 bits), 28 bytes captured (224 bits) on interface 0
USB URB
    [Source: 1.6.0]
    [Destination: host]
    USBPcap pseudoheader length: 28
    IRP ID: 0xffff80030a5f6460
    IRP USBD_STATUS: USBD_STATUS_SUCCESS (0x00000000)
    URB Function: URB_FUNCTION_CONTROL_TRANSFER (0x0008)
    IRP information: 0x01, Direction: PDO -> FDO
        0000 000. = Reserved: 0x00
        .... ...1 = Direction: PDO -> FDO (0x1)
    URB bus id: 1
    Device address: 6
    Endpoint: 0x00, Direction: OUT
        0... .... = Direction: OUT (0)
        .... 0000 = Endpoint number: 0
    URB transfer type: URB_CONTROL (0x02)
    Packet Data Length: 0
    [Request in: 9]
    [Time from request: 0.000101000 seconds]
    Control transfer stage: Status (2)

0000  1c 00 60 64 5f 0a 03 80 ff ff 00 00 00 00 08 00   ..`d_...........
0010  01 01 00 06 00 00 02 00 00 00 00 02               ............

No.     Time           Source                Destination           Protocol Length Info
     11 0.000522       host                  1.6.0                 USB      36     URB_CONTROL out

Frame 11: 36 bytes on wire (288 bits), 36 bytes captured (288 bits) on interface 0
USB URB
    [Source: host]
    [Destination: 1.6.0]
    USBPcap pseudoheader length: 28
    IRP ID: 0xffff80030a5f6460
    IRP USBD_STATUS: USBD_STATUS_SUCCESS (0x00000000)
    URB Function: URB_FUNCTION_CONTROL_TRANSFER (0x0008)
    IRP information: 0x00, Direction: FDO -> PDO
        0000 000. = Reserved: 0x00
        .... ...0 = Direction: FDO -> PDO (0x0)
    URB bus id: 1
    Device address: 6
    Endpoint: 0x00, Direction: OUT
        0... .... = Direction: OUT (0)
        .... 0000 = Endpoint number: 0
    URB transfer type: URB_CONTROL (0x02)
    Packet Data Length: 8
    [Response in: 12]
    Control transfer stage: Setup (0)
    [bInterfaceClass: Unknown (0xffff)]
URB setup
    bmRequestType: 0x41
    bRequest: 19
    wValue: 0x0000
    wIndex: 0 (0x0000)
    wLength: 16

0000  1c 00 60 64 5f 0a 03 80 ff ff 00 00 00 00 08 00   ..`d_...........
0010  00 01 00 06 00 00 02 08 00 00 00 00 41 13 00 00   ............A...
0020  00 00 10 00                                       ....

No.     Time           Source                Destination           Protocol Length Info
     12 0.000678       1.6.0                 host                  USB      44     URB_CONTROL out

Frame 12: 44 bytes on wire (352 bits), 44 bytes captured (352 bits) on interface 0
USB URB
    [Source: 1.6.0]
    [Destination: host]
    USBPcap pseudoheader length: 28
    IRP ID: 0xffff80030a5f6460
    IRP USBD_STATUS: USBD_STATUS_SUCCESS (0x00000000)
    URB Function: URB_FUNCTION_CONTROL_TRANSFER (0x0008)
    IRP information: 0x01, Direction: PDO -> FDO
        0000 000. = Reserved: 0x00
        .... ...1 = Direction: PDO -> FDO (0x1)
    URB bus id: 1
    Device address: 6
    Endpoint: 0x00, Direction: OUT
        0... .... = Direction: OUT (0)
        .... 0000 = Endpoint number: 0
    URB transfer type: URB_CONTROL (0x02)
    Packet Data Length: 16
    [Request in: 11]
    [Time from request: 0.000156000 seconds]
    Control transfer stage: Data (1)
    [bInterfaceClass: Unknown (0xffff)]
CONTROL response data: 00000000000000000080000000200000

0000  1c 00 60 64 5f 0a 03 80 ff ff 00 00 00 00 08 00   ..`d_...........
0010  01 01 00 06 00 00 02 10 00 00 00 01 00 00 00 00   ................
0020  00 00 00 00 00 80 00 00 00 20 00 00               ......... ..

No.     Time           Source                Destination           Protocol Length Info
     13 0.000706       1.6.0                 host                  USB      28     Unknown type 13 Status

Frame 13: 28 bytes on wire (224 bits), 28 bytes captured (224 bits) on interface 0
USB URB
    [Source: 1.6.0]
    [Destination: host]
    USBPcap pseudoheader length: 28
    IRP ID: 0xffff80030a5f6460
    IRP USBD_STATUS: USBD_STATUS_SUCCESS (0x00000000)
    URB Function: URB_FUNCTION_CONTROL_TRANSFER (0x0008)
    IRP information: 0x01, Direction: PDO -> FDO
        0000 000. = Reserved: 0x00
        .... ...1 = Direction: PDO -> FDO (0x1)
    URB bus id: 1
    Device address: 6
    Endpoint: 0x00, Direction: OUT
        0... .... = Direction: OUT (0)
        .... 0000 = Endpoint number: 0
    URB transfer type: URB_CONTROL (0x02)
    Packet Data Length: 0
    [Request in: 11]
    [Time from request: 0.000184000 seconds]
    Control transfer stage: Status (2)

0000  1c 00 60 64 5f 0a 03 80 ff ff 00 00 00 00 08 00   ..`d_...........
0010  01 01 00 06 00 00 02 00 00 00 00 02               ............

No.     Time           Source                Destination           Protocol Length Info
     14 0.000711       host                  1.6.0                 USB      36     URB_CONTROL out

Frame 14: 36 bytes on wire (288 bits), 36 bytes captured (288 bits) on interface 0
USB URB
    [Source: host]
    [Destination: 1.6.0]
    USBPcap pseudoheader length: 28
    IRP ID: 0xffff80030a5f6460
    IRP USBD_STATUS: USBD_STATUS_SUCCESS (0x00000000)
    URB Function: URB_FUNCTION_CONTROL_TRANSFER (0x0008)
    IRP information: 0x00, Direction: FDO -> PDO
        0000 000. = Reserved: 0x00
        .... ...0 = Direction: FDO -> PDO (0x0)
    URB bus id: 1
    Device address: 6
    Endpoint: 0x00, Direction: OUT
        0... .... = Direction: OUT (0)
        .... 0000 = Endpoint number: 0
    URB transfer type: URB_CONTROL (0x02)
    Packet Data Length: 8
    [Response in: 15]
    Control transfer stage: Setup (0)
    [bInterfaceClass: Unknown (0xffff)]
URB setup
    bmRequestType: 0x41
    bRequest: 25
    wValue: 0x0000
    wIndex: 0 (0x0000)
    wLength: 6

0000  1c 00 60 64 5f 0a 03 80 ff ff 00 00 00 00 08 00   ..`d_...........
0010  00 01 00 06 00 00 02 08 00 00 00 00 41 19 00 00   ............A...
0020  00 00 06 00                                       ....

No.     Time           Source                Destination           Protocol Length Info
     15 0.000837       1.6.0                 host                  USB      34     URB_CONTROL out

Frame 15: 34 bytes on wire (272 bits), 34 bytes captured (272 bits) on interface 0
USB URB
    [Source: 1.6.0]
    [Destination: host]
    USBPcap pseudoheader length: 28
    IRP ID: 0xffff80030a5f6460
    IRP USBD_STATUS: USBD_STATUS_SUCCESS (0x00000000)
    URB Function: URB_FUNCTION_CONTROL_TRANSFER (0x0008)
    IRP information: 0x01, Direction: PDO -> FDO
        0000 000. = Reserved: 0x00
        .... ...1 = Direction: PDO -> FDO (0x1)
    URB bus id: 1
    Device address: 6
    Endpoint: 0x00, Direction: OUT
        0... .... = Direction: OUT (0)
        .... 0000 = Endpoint number: 0
    URB transfer type: URB_CONTROL (0x02)
    Packet Data Length: 6
    [Request in: 14]
    [Time from request: 0.000126000 seconds]
    Control transfer stage: Data (1)
    [bInterfaceClass: Unknown (0xffff)]
CONTROL response data: 000000001113

0000  1c 00 60 64 5f 0a 03 80 ff ff 00 00 00 00 08 00   ..`d_...........
0010  01 01 00 06 00 00 02 06 00 00 00 01 00 00 00 00   ................
0020  11 13                                             ..

No.     Time           Source                Destination           Protocol Length Info
     16 0.000837       1.6.0                 host                  USB      28     Unknown type 19 Status

Frame 16: 28 bytes on wire (224 bits), 28 bytes captured (224 bits) on interface 0
USB URB
    [Source: 1.6.0]
    [Destination: host]
    USBPcap pseudoheader length: 28
    IRP ID: 0xffff80030a5f6460
    IRP USBD_STATUS: USBD_STATUS_SUCCESS (0x00000000)
    URB Function: URB_FUNCTION_CONTROL_TRANSFER (0x0008)
    IRP information: 0x01, Direction: PDO -> FDO
        0000 000. = Reserved: 0x00
        .... ...1 = Direction: PDO -> FDO (0x1)
    URB bus id: 1
    Device address: 6
    Endpoint: 0x00, Direction: OUT
        0... .... = Direction: OUT (0)
        .... 0000 = Endpoint number: 0
    URB transfer type: URB_CONTROL (0x02)
    Packet Data Length: 0
    [Request in: 14]
    [Time from request: 0.000126000 seconds]
    Control transfer stage: Status (2)

0000  1c 00 60 64 5f 0a 03 80 ff ff 00 00 00 00 08 00   ..`d_...........
0010  01 01 00 06 00 00 02 00 00 00 00 02               ............

No.     Time           Source                Destination           Protocol Length Info
     17 0.000844       host                  1.6.0                 USB      36     URB_CONTROL out

Frame 17: 36 bytes on wire (288 bits), 36 bytes captured (288 bits) on interface 0
USB URB
    [Source: host]
    [Destination: 1.6.0]
    USBPcap pseudoheader length: 28
    IRP ID: 0xffff800307bca010
    IRP USBD_STATUS: USBD_STATUS_SUCCESS (0x00000000)
    URB Function: URB_FUNCTION_CONTROL_TRANSFER (0x0008)
    IRP information: 0x00, Direction: FDO -> PDO
        0000 000. = Reserved: 0x00
        .... ...0 = Direction: FDO -> PDO (0x0)
    URB bus id: 1
    Device address: 6
    Endpoint: 0x00, Direction: OUT
        0... .... = Direction: OUT (0)
        .... 0000 = Endpoint number: 0
    URB transfer type: URB_CONTROL (0x02)
    Packet Data Length: 8
    [Response in: 18]
    Control transfer stage: Setup (0)
    [bInterfaceClass: Unknown (0xffff)]
URB setup
    bmRequestType: 0x41
    bRequest: 30
    wValue: 0x0000
    wIndex: 0 (0x0000)
    wLength: 4

0000  1c 00 10 a0 bc 07 03 80 ff ff 00 00 00 00 08 00   ................
0010  00 01 00 06 00 00 02 08 00 00 00 00 41 1e 00 00   ............A...
0020  00 00 04 00                                       ....

No.     Time           Source                Destination           Protocol Length Info
     18 0.000994       1.6.0                 host                  USB      32     URB_CONTROL out

Frame 18: 32 bytes on wire (256 bits), 32 bytes captured (256 bits) on interface 0
USB URB
    [Source: 1.6.0]
    [Destination: host]
    USBPcap pseudoheader length: 28
    IRP ID: 0xffff800307bca010
    IRP USBD_STATUS: USBD_STATUS_SUCCESS (0x00000000)
    URB Function: URB_FUNCTION_CONTROL_TRANSFER (0x0008)
    IRP information: 0x01, Direction: PDO -> FDO
        0000 000. = Reserved: 0x00
        .... ...1 = Direction: PDO -> FDO (0x1)
    URB bus id: 1
    Device address: 6
    Endpoint: 0x00, Direction: OUT
        0... .... = Direction: OUT (0)
        .... 0000 = Endpoint number: 0
    URB transfer type: URB_CONTROL (0x02)
    Packet Data Length: 4
    [Request in: 17]
    [Time from request: 0.000150000 seconds]
    Control transfer stage: Data (1)
    [bInterfaceClass: Unknown (0xffff)]
CONTROL response data: b0040000

0000  1c 00 10 a0 bc 07 03 80 ff ff 00 00 00 00 08 00   ................
0010  01 01 00 06 00 00 02 04 00 00 00 01 b0 04 00 00   ................

No.     Time           Source                Destination           Protocol Length Info
     19 0.001023       1.6.0                 host                  USB      28     Unknown type 1e Status

Frame 19: 28 bytes on wire (224 bits), 28 bytes captured (224 bits) on interface 0
USB URB
    [Source: 1.6.0]
    [Destination: host]
    USBPcap pseudoheader length: 28
    IRP ID: 0xffff800307bca010
    IRP USBD_STATUS: USBD_STATUS_SUCCESS (0x00000000)
    URB Function: URB_FUNCTION_CONTROL_TRANSFER (0x0008)
    IRP information: 0x01, Direction: PDO -> FDO
        0000 000. = Reserved: 0x00
        .... ...1 = Direction: PDO -> FDO (0x1)
    URB bus id: 1
    Device address: 6
    Endpoint: 0x00, Direction: OUT
        0... .... = Direction: OUT (0)
        .... 0000 = Endpoint number: 0
    URB transfer type: URB_CONTROL (0x02)
    Packet Data Length: 0
    [Request in: 17]
    [Time from request: 0.000179000 seconds]
    Control transfer stage: Status (2)

0000  1c 00 10 a0 bc 07 03 80 ff ff 00 00 00 00 08 00   ................
0010  01 01 00 06 00 00 02 00 00 00 00 02               ............

No.     Time           Source                Destination           Protocol Length Info
     20 0.001340       host                  1.6.0                 USB      36     URB_CONTROL out

Frame 20: 36 bytes on wire (288 bits), 36 bytes captured (288 bits) on interface 0
USB URB
    [Source: host]
    [Destination: 1.6.0]
    USBPcap pseudoheader length: 28
    IRP ID: 0xffff80030a5f6460
    IRP USBD_STATUS: USBD_STATUS_SUCCESS (0x00000000)
    URB Function: URB_FUNCTION_CONTROL_TRANSFER (0x0008)
    IRP information: 0x00, Direction: FDO -> PDO
        0000 000. = Reserved: 0x00
        .... ...0 = Direction: FDO -> PDO (0x0)
    URB bus id: 1
    Device address: 6
    Endpoint: 0x00, Direction: OUT
        0... .... = Direction: OUT (0)
        .... 0000 = Endpoint number: 0
    URB transfer type: URB_CONTROL (0x02)
    Packet Data Length: 8
    [Response in: 21]
    Control transfer stage: Setup (0)
    [bInterfaceClass: Unknown (0xffff)]
URB setup
    bmRequestType: 0x41
    bRequest: 30
    wValue: 0x0000
    wIndex: 0 (0x0000)
    wLength: 4

0000  1c 00 60 64 5f 0a 03 80 ff ff 00 00 00 00 08 00   ..`d_...........
0010  00 01 00 06 00 00 02 08 00 00 00 00 41 1e 00 00   ............A...
0020  00 00 04 00                                       ....

No.     Time           Source                Destination           Protocol Length Info
     21 0.001522       1.6.0                 host                  USB      32     URB_CONTROL out

Frame 21: 32 bytes on wire (256 bits), 32 bytes captured (256 bits) on interface 0
USB URB
    [Source: 1.6.0]
    [Destination: host]
    USBPcap pseudoheader length: 28
    IRP ID: 0xffff80030a5f6460
    IRP USBD_STATUS: USBD_STATUS_SUCCESS (0x00000000)
    URB Function: URB_FUNCTION_CONTROL_TRANSFER (0x0008)
    IRP information: 0x01, Direction: PDO -> FDO
        0000 000. = Reserved: 0x00
        .... ...1 = Direction: PDO -> FDO (0x1)
    URB bus id: 1
    Device address: 6
    Endpoint: 0x00, Direction: OUT
        0... .... = Direction: OUT (0)
        .... 0000 = Endpoint number: 0
    URB transfer type: URB_CONTROL (0x02)
    Packet Data Length: 4
    [Request in: 20]
    [Time from request: 0.000182000 seconds]
    Control transfer stage: Data (1)
    [bInterfaceClass: Unknown (0xffff)]
CONTROL response data: 00e10000

0000  1c 00 60 64 5f 0a 03 80 ff ff 00 00 00 00 08 00   ..`d_...........
0010  01 01 00 06 00 00 02 04 00 00 00 01 00 e1 00 00   ................

No.     Time           Source                Destination           Protocol Length Info
     22 0.001550       1.6.0                 host                  USB      28     Unknown type 1e Status

Frame 22: 28 bytes on wire (224 bits), 28 bytes captured (224 bits) on interface 0
USB URB
    [Source: 1.6.0]
    [Destination: host]
    USBPcap pseudoheader length: 28
    IRP ID: 0xffff80030a5f6460
    IRP USBD_STATUS: USBD_STATUS_SUCCESS (0x00000000)
    URB Function: URB_FUNCTION_CONTROL_TRANSFER (0x0008)
    IRP information: 0x01, Direction: PDO -> FDO
        0000 000. = Reserved: 0x00
        .... ...1 = Direction: PDO -> FDO (0x1)
    URB bus id: 1
    Device address: 6
    Endpoint: 0x00, Direction: OUT
        0... .... = Direction: OUT (0)
        .... 0000 = Endpoint number: 0
    URB transfer type: URB_CONTROL (0x02)
    Packet Data Length: 0
    [Request in: 20]
    [Time from request: 0.000210000 seconds]
    Control transfer stage: Status (2)

0000  1c 00 60 64 5f 0a 03 80 ff ff 00 00 00 00 08 00   ..`d_...........
0010  01 01 00 06 00 00 02 00 00 00 00 02               ............

No.     Time           Source                Destination           Protocol Length Info
     23 0.001568       host                  1.6.0                 USB      36     URB_CONTROL out

Frame 23: 36 bytes on wire (288 bits), 36 bytes captured (288 bits) on interface 0
USB URB
    [Source: host]
    [Destination: 1.6.0]
    USBPcap pseudoheader length: 28
    IRP ID: 0xffff80030a5f6460
    IRP USBD_STATUS: USBD_STATUS_SUCCESS (0x00000000)
    URB Function: URB_FUNCTION_CONTROL_TRANSFER (0x0008)
    IRP information: 0x00, Direction: FDO -> PDO
        0000 000. = Reserved: 0x00
        .... ...0 = Direction: FDO -> PDO (0x0)
    URB bus id: 1
    Device address: 6
    Endpoint: 0x00, Direction: OUT
        0... .... = Direction: OUT (0)
        .... 0000 = Endpoint number: 0
    URB transfer type: URB_CONTROL (0x02)
    Packet Data Length: 8
    [Response in: 24]
    Control transfer stage: Setup (0)
    [bInterfaceClass: Unknown (0xffff)]
URB setup
    bmRequestType: 0x41
    bRequest: 7
    wValue: 0x0200
    wIndex: 0 (0x0000)
    wLength: 0

0000  1c 00 60 64 5f 0a 03 80 ff ff 00 00 00 00 08 00   ..`d_...........
0010  00 01 00 06 00 00 02 08 00 00 00 00 41 07 00 02   ............A...
0020  00 00 00 00                                       ....

No.     Time           Source                Destination           Protocol Length Info
     24 0.001659       1.6.0                 host                  USB      28     SET DESCRIPTOR Status

Frame 24: 28 bytes on wire (224 bits), 28 bytes captured (224 bits) on interface 0
USB URB
    [Source: 1.6.0]
    [Destination: host]
    USBPcap pseudoheader length: 28
    IRP ID: 0xffff80030a5f6460
    IRP USBD_STATUS: USBD_STATUS_SUCCESS (0x00000000)
    URB Function: URB_FUNCTION_CONTROL_TRANSFER (0x0008)
    IRP information: 0x01, Direction: PDO -> FDO
        0000 000. = Reserved: 0x00
        .... ...1 = Direction: PDO -> FDO (0x1)
    URB bus id: 1
    Device address: 6
    Endpoint: 0x00, Direction: OUT
        0... .... = Direction: OUT (0)
        .... 0000 = Endpoint number: 0
    URB transfer type: URB_CONTROL (0x02)
    Packet Data Length: 0
    [Request in: 23]
    [Time from request: 0.000091000 seconds]
    Control transfer stage: Status (2)

0000  1c 00 60 64 5f 0a 03 80 ff ff 00 00 00 00 08 00   ..`d_...........
0010  01 01 00 06 00 00 02 00 00 00 00 02               ............

No.     Time           Source                Destination           Protocol Length Info
     25 0.001669       host                  1.6.0                 USB      36     URB_CONTROL in

Frame 25: 36 bytes on wire (288 bits), 36 bytes captured (288 bits) on interface 0
USB URB
    [Source: host]
    [Destination: 1.6.0]
    USBPcap pseudoheader length: 28
    IRP ID: 0xffff80030a5f6460
    IRP USBD_STATUS: USBD_STATUS_SUCCESS (0x00000000)
    URB Function: URB_FUNCTION_CONTROL_TRANSFER (0x0008)
    IRP information: 0x00, Direction: FDO -> PDO
        0000 000. = Reserved: 0x00
        .... ...0 = Direction: FDO -> PDO (0x0)
    URB bus id: 1
    Device address: 6
    Endpoint: 0x80, Direction: IN
        1... .... = Direction: IN (1)
        .... 0000 = Endpoint number: 0
    URB transfer type: URB_CONTROL (0x02)
    Packet Data Length: 8
    [Response in: 27]
    Control transfer stage: Setup (0)
    [bInterfaceClass: Unknown (0xffff)]
URB setup
    bmRequestType: 0xc1
    bRequest: 8
    wValue: 0x0000
    wIndex: 0 (0x0000)
    wLength: 4

0000  1c 00 60 64 5f 0a 03 80 ff ff 00 00 00 00 08 00   ..`d_...........
0010  00 01 00 06 00 80 02 08 00 00 00 00 c1 08 00 00   ................
0020  00 00 04 00                                       ....

No.     Time           Source                Destination           Protocol Length Info
     26 0.001679       host                  1.6.0                 USB      36     URB_CONTROL out

Frame 26: 36 bytes on wire (288 bits), 36 bytes captured (288 bits) on interface 0
USB URB
    [Source: host]
    [Destination: 1.6.0]
    USBPcap pseudoheader length: 28
    IRP ID: 0xffff80030740f6e0
    IRP USBD_STATUS: USBD_STATUS_SUCCESS (0x00000000)
    URB Function: URB_FUNCTION_CONTROL_TRANSFER (0x0008)
    IRP information: 0x00, Direction: FDO -> PDO
        0000 000. = Reserved: 0x00
        .... ...0 = Direction: FDO -> PDO (0x0)
    URB bus id: 1
    Device address: 6
    Endpoint: 0x00, Direction: OUT
        0... .... = Direction: OUT (0)
        .... 0000 = Endpoint number: 0
    URB transfer type: URB_CONTROL (0x02)
    Packet Data Length: 8
    [Response in: 29]
    Control transfer stage: Setup (0)
    [bInterfaceClass: Unknown (0xffff)]
URB setup
    bmRequestType: 0x41
    bRequest: 7
    wValue: 0x0100
    wIndex: 0 (0x0000)
    wLength: 0

0000  1c 00 e0 f6 40 07 03 80 ff ff 00 00 00 00 08 00   ....@...........
0010  00 01 00 06 00 00 02 08 00 00 00 00 41 07 00 01   ............A...
0020  00 00 00 00                                       ....

No.     Time           Source                Destination           Protocol Length Info
     27 0.001789       1.6.0                 host                  USB      29     URB_CONTROL in

Frame 27: 29 bytes on wire (232 bits), 29 bytes captured (232 bits) on interface 0
USB URB
    [Source: 1.6.0]
    [Destination: host]
    USBPcap pseudoheader length: 28
    IRP ID: 0xffff80030a5f6460
    IRP USBD_STATUS: USBD_STATUS_SUCCESS (0x00000000)
    URB Function: URB_FUNCTION_CONTROL_TRANSFER (0x0008)
    IRP information: 0x01, Direction: PDO -> FDO
        0000 000. = Reserved: 0x00
        .... ...1 = Direction: PDO -> FDO (0x1)
    URB bus id: 1
    Device address: 6
    Endpoint: 0x80, Direction: IN
        1... .... = Direction: IN (1)
        .... 0000 = Endpoint number: 0
    URB transfer type: URB_CONTROL (0x02)
    Packet Data Length: 1
    [Request in: 25]
    [Time from request: 0.000120000 seconds]
    Control transfer stage: Data (1)
    [bInterfaceClass: Unknown (0xffff)]
CONTROL response data: 00

0000  1c 00 60 64 5f 0a 03 80 ff ff 00 00 00 00 08 00   ..`d_...........
0010  01 01 00 06 00 80 02 01 00 00 00 01 00            .............

No.     Time           Source                Destination           Protocol Length Info
     28 0.001790       1.6.0                 host                  USB      28     GET CONFIGURATION Status

Frame 28: 28 bytes on wire (224 bits), 28 bytes captured (224 bits) on interface 0
USB URB
    [Source: 1.6.0]
    [Destination: host]
    USBPcap pseudoheader length: 28
    IRP ID: 0xffff80030a5f6460
    IRP USBD_STATUS: USBD_STATUS_SUCCESS (0x00000000)
    URB Function: URB_FUNCTION_CONTROL_TRANSFER (0x0008)
    IRP information: 0x01, Direction: PDO -> FDO
        0000 000. = Reserved: 0x00
        .... ...1 = Direction: PDO -> FDO (0x1)
    URB bus id: 1
    Device address: 6
    Endpoint: 0x80, Direction: IN
        1... .... = Direction: IN (1)
        .... 0000 = Endpoint number: 0
    URB transfer type: URB_CONTROL (0x02)
    Packet Data Length: 0
    [Request in: 25]
    [Time from request: 0.000121000 seconds]
    Control transfer stage: Status (2)

0000  1c 00 60 64 5f 0a 03 80 ff ff 00 00 00 00 08 00   ..`d_...........
0010  01 01 00 06 00 80 02 00 00 00 00 02               ............

No.     Time           Source                Destination           Protocol Length Info
     29 0.001839       1.6.0                 host                  USB      28     SET DESCRIPTOR Status

Frame 29: 28 bytes on wire (224 bits), 28 bytes captured (224 bits) on interface 0
USB URB
    [Source: 1.6.0]
    [Destination: host]
    USBPcap pseudoheader length: 28
    IRP ID: 0xffff80030740f6e0
    IRP USBD_STATUS: USBD_STATUS_SUCCESS (0x00000000)
    URB Function: URB_FUNCTION_CONTROL_TRANSFER (0x0008)
    IRP information: 0x01, Direction: PDO -> FDO
        0000 000. = Reserved: 0x00
        .... ...1 = Direction: PDO -> FDO (0x1)
    URB bus id: 1
    Device address: 6
    Endpoint: 0x00, Direction: OUT
        0... .... = Direction: OUT (0)
        .... 0000 = Endpoint number: 0
    URB transfer type: URB_CONTROL (0x02)
    Packet Data Length: 0
    [Request in: 26]
    [Time from request: 0.000160000 seconds]
    Control transfer stage: Status (2)

0000  1c 00 e0 f6 40 07 03 80 ff ff 00 00 00 00 08 00   ....@...........
0010  01 01 00 06 00 00 02 00 00 00 00 02               ............

No.     Time           Source                Destination           Protocol Length Info
     30 0.001847       host                  1.6.0                 USB      36     URB_CONTROL in

Frame 30: 36 bytes on wire (288 bits), 36 bytes captured (288 bits) on interface 0
USB URB
    [Source: host]
    [Destination: 1.6.0]
    USBPcap pseudoheader length: 28
    IRP ID: 0xffff80030a5f6460
    IRP USBD_STATUS: USBD_STATUS_SUCCESS (0x00000000)
    URB Function: URB_FUNCTION_CONTROL_TRANSFER (0x0008)
    IRP information: 0x00, Direction: FDO -> PDO
        0000 000. = Reserved: 0x00
        .... ...0 = Direction: FDO -> PDO (0x0)
    URB bus id: 1
    Device address: 6
    Endpoint: 0x80, Direction: IN
        1... .... = Direction: IN (1)
        .... 0000 = Endpoint number: 0
    URB transfer type: URB_CONTROL (0x02)
    Packet Data Length: 8
    [Response in: 32]
    Control transfer stage: Setup (0)
    [bInterfaceClass: Unknown (0xffff)]
URB setup
    bmRequestType: 0xc1
    bRequest: 8
    wValue: 0x0000
    wIndex: 0 (0x0000)
    wLength: 4

0000  1c 00 60 64 5f 0a 03 80 ff ff 00 00 00 00 08 00   ..`d_...........
0010  00 01 00 06 00 80 02 08 00 00 00 00 c1 08 00 00   ................
0020  00 00 04 00                                       ....

No.     Time           Source                Destination           Protocol Length Info
     31 0.001862       host                  1.6.0                 USB      36     URB_CONTROL out

Frame 31: 36 bytes on wire (288 bits), 36 bytes captured (288 bits) on interface 0
USB URB
    [Source: host]
    [Destination: 1.6.0]
    USBPcap pseudoheader length: 28
    IRP ID: 0xffff800307afaaf0
    IRP USBD_STATUS: USBD_STATUS_SUCCESS (0x00000000)
    URB Function: URB_FUNCTION_CONTROL_TRANSFER (0x0008)
    IRP information: 0x00, Direction: FDO -> PDO
        0000 000. = Reserved: 0x00
        .... ...0 = Direction: FDO -> PDO (0x0)
    URB bus id: 1
    Device address: 6
    Endpoint: 0x00, Direction: OUT
        0... .... = Direction: OUT (0)
        .... 0000 = Endpoint number: 0
    URB transfer type: URB_CONTROL (0x02)
    Packet Data Length: 8
    [Response in: 34]
    Control transfer stage: Setup (0)
    [bInterfaceClass: Unknown (0xffff)]
URB setup
    bmRequestType: 0x41
    bRequest: 3
    wValue: 0x0800
    wIndex: 0 (0x0000)
    wLength: 0

0000  1c 00 f0 aa af 07 03 80 ff ff 00 00 00 00 08 00   ................
0010  00 01 00 06 00 00 02 08 00 00 00 00 41 03 00 08   ............A...
0020  00 00 00 00                                       ....

No.     Time           Source                Destination           Protocol Length Info
     32 0.001967       1.6.0                 host                  USB      29     URB_CONTROL in

Frame 32: 29 bytes on wire (232 bits), 29 bytes captured (232 bits) on interface 0
USB URB
    [Source: 1.6.0]
    [Destination: host]
    USBPcap pseudoheader length: 28
    IRP ID: 0xffff80030a5f6460
    IRP USBD_STATUS: USBD_STATUS_SUCCESS (0x00000000)
    URB Function: URB_FUNCTION_CONTROL_TRANSFER (0x0008)
    IRP information: 0x01, Direction: PDO -> FDO
        0000 000. = Reserved: 0x00
        .... ...1 = Direction: PDO -> FDO (0x1)
    URB bus id: 1
    Device address: 6
    Endpoint: 0x80, Direction: IN
        1... .... = Direction: IN (1)
        .... 0000 = Endpoint number: 0
    URB transfer type: URB_CONTROL (0x02)
    Packet Data Length: 1
    [Request in: 30]
    [Time from request: 0.000120000 seconds]
    Control transfer stage: Data (1)
    [bInterfaceClass: Unknown (0xffff)]
CONTROL response data: 00

0000  1c 00 60 64 5f 0a 03 80 ff ff 00 00 00 00 08 00   ..`d_...........
0010  01 01 00 06 00 80 02 01 00 00 00 01 00            .............

No.     Time           Source                Destination           Protocol Length Info
     33 0.001967       1.6.0                 host                  USB      28     GET CONFIGURATION Status

Frame 33: 28 bytes on wire (224 bits), 28 bytes captured (224 bits) on interface 0
USB URB
    [Source: 1.6.0]
    [Destination: host]
    USBPcap pseudoheader length: 28
    IRP ID: 0xffff80030a5f6460
    IRP USBD_STATUS: USBD_STATUS_SUCCESS (0x00000000)
    URB Function: URB_FUNCTION_CONTROL_TRANSFER (0x0008)
    IRP information: 0x01, Direction: PDO -> FDO
        0000 000. = Reserved: 0x00
        .... ...1 = Direction: PDO -> FDO (0x1)
    URB bus id: 1
    Device address: 6
    Endpoint: 0x80, Direction: IN
        1... .... = Direction: IN (1)
        .... 0000 = Endpoint number: 0
    URB transfer type: URB_CONTROL (0x02)
    Packet Data Length: 0
    [Request in: 30]
    [Time from request: 0.000120000 seconds]
    Control transfer stage: Status (2)

0000  1c 00 60 64 5f 0a 03 80 ff ff 00 00 00 00 08 00   ..`d_...........
0010  01 01 00 06 00 80 02 00 00 00 00 02               ............

No.     Time           Source                Destination           Protocol Length Info
     34 0.002102       1.6.0                 host                  USB      28     SET FEATURE Status

Frame 34: 28 bytes on wire (224 bits), 28 bytes captured (224 bits) on interface 0
USB URB
    [Source: 1.6.0]
    [Destination: host]
    USBPcap pseudoheader length: 28
    IRP ID: 0xffff800307afaaf0
    IRP USBD_STATUS: USBD_STATUS_SUCCESS (0x00000000)
    URB Function: URB_FUNCTION_CONTROL_TRANSFER (0x0008)
    IRP information: 0x01, Direction: PDO -> FDO
        0000 000. = Reserved: 0x00
        .... ...1 = Direction: PDO -> FDO (0x1)
    URB bus id: 1
    Device address: 6
    Endpoint: 0x00, Direction: OUT
        0... .... = Direction: OUT (0)
        .... 0000 = Endpoint number: 0
    URB transfer type: URB_CONTROL (0x02)
    Packet Data Length: 0
    [Request in: 31]
    [Time from request: 0.000240000 seconds]
    Control transfer stage: Status (2)

0000  1c 00 f0 aa af 07 03 80 ff ff 00 00 00 00 08 00   ................
0010  01 01 00 06 00 00 02 00 00 00 00 02               ............

No.     Time           Source                Destination           Protocol Length Info
     35 0.002144       host                  1.6.0                 USB      36     URB_CONTROL out

Frame 35: 36 bytes on wire (288 bits), 36 bytes captured (288 bits) on interface 0
USB URB
    [Source: host]
    [Destination: 1.6.0]
    USBPcap pseudoheader length: 28
    IRP ID: 0xffff800307afaaf0
    IRP USBD_STATUS: USBD_STATUS_SUCCESS (0x00000000)
    URB Function: URB_FUNCTION_CONTROL_TRANSFER (0x0008)
    IRP information: 0x00, Direction: FDO -> PDO
        0000 000. = Reserved: 0x00
        .... ...0 = Direction: FDO -> PDO (0x0)
    URB bus id: 1
    Device address: 6
    Endpoint: 0x00, Direction: OUT
        0... .... = Direction: OUT (0)
        .... 0000 = Endpoint number: 0
    URB transfer type: URB_CONTROL (0x02)
    Packet Data Length: 8
    [Response in: 36]
    Control transfer stage: Setup (0)
    [bInterfaceClass: Unknown (0xffff)]
URB setup
    bmRequestType: 0x41
    bRequest: 25
    wValue: 0x0000
    wIndex: 0 (0x0000)
    wLength: 6

0000  1c 00 f0 aa af 07 03 80 ff ff 00 00 00 00 08 00   ................
0010  00 01 00 06 00 00 02 08 00 00 00 00 41 19 00 00   ............A...
0020  00 00 06 00                                       ....

No.     Time           Source                Destination           Protocol Length Info
     36 0.002269       1.6.0                 host                  USB      34     URB_CONTROL out

Frame 36: 34 bytes on wire (272 bits), 34 bytes captured (272 bits) on interface 0
USB URB
    [Source: 1.6.0]
    [Destination: host]
    USBPcap pseudoheader length: 28
    IRP ID: 0xffff800307afaaf0
    IRP USBD_STATUS: USBD_STATUS_SUCCESS (0x00000000)
    URB Function: URB_FUNCTION_CONTROL_TRANSFER (0x0008)
    IRP information: 0x01, Direction: PDO -> FDO
        0000 000. = Reserved: 0x00
        .... ...1 = Direction: PDO -> FDO (0x1)
    URB bus id: 1
    Device address: 6
    Endpoint: 0x00, Direction: OUT
        0... .... = Direction: OUT (0)
        .... 0000 = Endpoint number: 0
    URB transfer type: URB_CONTROL (0x02)
    Packet Data Length: 6
    [Request in: 35]
    [Time from request: 0.000125000 seconds]
    Control transfer stage: Data (1)
    [bInterfaceClass: Unknown (0xffff)]
CONTROL response data: 000000001113

0000  1c 00 f0 aa af 07 03 80 ff ff 00 00 00 00 08 00   ................
0010  01 01 00 06 00 00 02 06 00 00 00 01 00 00 00 00   ................
0020  11 13                                             ..

No.     Time           Source                Destination           Protocol Length Info
     37 0.002270       1.6.0                 host                  USB      28     Unknown type 19 Status

Frame 37: 28 bytes on wire (224 bits), 28 bytes captured (224 bits) on interface 0
USB URB
    [Source: 1.6.0]
    [Destination: host]
    USBPcap pseudoheader length: 28
    IRP ID: 0xffff800307afaaf0
    IRP USBD_STATUS: USBD_STATUS_SUCCESS (0x00000000)
    URB Function: URB_FUNCTION_CONTROL_TRANSFER (0x0008)
    IRP information: 0x01, Direction: PDO -> FDO
        0000 000. = Reserved: 0x00
        .... ...1 = Direction: PDO -> FDO (0x1)
    URB bus id: 1
    Device address: 6
    Endpoint: 0x00, Direction: OUT
        0... .... = Direction: OUT (0)
        .... 0000 = Endpoint number: 0
    URB transfer type: URB_CONTROL (0x02)
    Packet Data Length: 0
    [Request in: 35]
    [Time from request: 0.000126000 seconds]
    Control transfer stage: Status (2)

0000  1c 00 f0 aa af 07 03 80 ff ff 00 00 00 00 08 00   ................
0010  01 01 00 06 00 00 02 00 00 00 00 02               ............

No.     Time           Source                Destination           Protocol Length Info
     38 0.002283       host                  1.6.0                 USB      36     URB_CONTROL out

Frame 38: 36 bytes on wire (288 bits), 36 bytes captured (288 bits) on interface 0
USB URB
    [Source: host]
    [Destination: 1.6.0]
    USBPcap pseudoheader length: 28
    IRP ID: 0xffff800307afaaf0
    IRP USBD_STATUS: USBD_STATUS_SUCCESS (0x00000000)
    URB Function: URB_FUNCTION_CONTROL_TRANSFER (0x0008)
    IRP information: 0x00, Direction: FDO -> PDO
        0000 000. = Reserved: 0x00
        .... ...0 = Direction: FDO -> PDO (0x0)
    URB bus id: 1
    Device address: 6
    Endpoint: 0x00, Direction: OUT
        0... .... = Direction: OUT (0)
        .... 0000 = Endpoint number: 0
    URB transfer type: URB_CONTROL (0x02)
    Packet Data Length: 8
    [Response in: 39]
    Control transfer stage: Setup (0)
    [bInterfaceClass: Unknown (0xffff)]
URB setup
    bmRequestType: 0x41
    bRequest: 19
    wValue: 0x0000
    wIndex: 0 (0x0000)
    wLength: 16

0000  1c 00 f0 aa af 07 03 80 ff ff 00 00 00 00 08 00   ................
0010  00 01 00 06 00 00 02 08 00 00 00 00 41 13 00 00   ............A...
0020  00 00 10 00                                       ....

No.     Time           Source                Destination           Protocol Length Info
     39 0.002390       1.6.0                 host                  USB      44     URB_CONTROL out

Frame 39: 44 bytes on wire (352 bits), 44 bytes captured (352 bits) on interface 0
USB URB
    [Source: 1.6.0]
    [Destination: host]
    USBPcap pseudoheader length: 28
    IRP ID: 0xffff800307afaaf0
    IRP USBD_STATUS: USBD_STATUS_SUCCESS (0x00000000)
    URB Function: URB_FUNCTION_CONTROL_TRANSFER (0x0008)
    IRP information: 0x01, Direction: PDO -> FDO
        0000 000. = Reserved: 0x00
        .... ...1 = Direction: PDO -> FDO (0x1)
    URB bus id: 1
    Device address: 6
    Endpoint: 0x00, Direction: OUT
        0... .... = Direction: OUT (0)
        .... 0000 = Endpoint number: 0
    URB transfer type: URB_CONTROL (0x02)
    Packet Data Length: 16
    [Request in: 38]
    [Time from request: 0.000107000 seconds]
    Control transfer stage: Data (1)
    [bInterfaceClass: Unknown (0xffff)]
CONTROL response data: 00000000000000003200000034000000

0000  1c 00 f0 aa af 07 03 80 ff ff 00 00 00 00 08 00   ................
0010  01 01 00 06 00 00 02 10 00 00 00 01 00 00 00 00   ................
0020  00 00 00 00 32 00 00 00 34 00 00 00               ....2...4...

No.     Time           Source                Destination           Protocol Length Info
     40 0.002391       1.6.0                 host                  USB      28     Unknown type 13 Status

Frame 40: 28 bytes on wire (224 bits), 28 bytes captured (224 bits) on interface 0
USB URB
    [Source: 1.6.0]
    [Destination: host]
    USBPcap pseudoheader length: 28
    IRP ID: 0xffff800307afaaf0
    IRP USBD_STATUS: USBD_STATUS_SUCCESS (0x00000000)
    URB Function: URB_FUNCTION_CONTROL_TRANSFER (0x0008)
    IRP information: 0x01, Direction: PDO -> FDO
        0000 000. = Reserved: 0x00
        .... ...1 = Direction: PDO -> FDO (0x1)
    URB bus id: 1
    Device address: 6
    Endpoint: 0x00, Direction: OUT
        0... .... = Direction: OUT (0)
        .... 0000 = Endpoint number: 0
    URB transfer type: URB_CONTROL (0x02)
    Packet Data Length: 0
    [Request in: 38]
    [Time from request: 0.000108000 seconds]
    Control transfer stage: Status (2)

0000  1c 00 f0 aa af 07 03 80 ff ff 00 00 00 00 08 00   ................
0010  01 01 00 06 00 00 02 00 00 00 00 02               ............

No.     Time           Source                Destination           Protocol Length Info
     41 0.002948       host                  1.6.0                 USB      36     URB_CONTROL out

Frame 41: 36 bytes on wire (288 bits), 36 bytes captured (288 bits) on interface 0
USB URB
    [Source: host]
    [Destination: 1.6.0]
    USBPcap pseudoheader length: 28
    IRP ID: 0xffff800307afaaf0
    IRP USBD_STATUS: USBD_STATUS_SUCCESS (0x00000000)
    URB Function: URB_FUNCTION_CONTROL_TRANSFER (0x0008)
    IRP information: 0x00, Direction: FDO -> PDO
        0000 000. = Reserved: 0x00
        .... ...0 = Direction: FDO -> PDO (0x0)
    URB bus id: 1
    Device address: 6
    Endpoint: 0x00, Direction: OUT
        0... .... = Direction: OUT (0)
        .... 0000 = Endpoint number: 0
    URB transfer type: URB_CONTROL (0x02)
    Packet Data Length: 8
    [Response in: 42]
    Control transfer stage: Setup (0)
    [bInterfaceClass: Unknown (0xffff)]
URB setup
    bmRequestType: 0x41
    bRequest: 30
    wValue: 0x0000
    wIndex: 0 (0x0000)
    wLength: 4

0000  1c 00 f0 aa af 07 03 80 ff ff 00 00 00 00 08 00   ................
0010  00 01 00 06 00 00 02 08 00 00 00 00 41 1e 00 00   ............A...
0020  00 00 04 00                                       ....

No.     Time           Source                Destination           Protocol Length Info
     42 0.003149       1.6.0                 host                  USB      32     URB_CONTROL out

Frame 42: 32 bytes on wire (256 bits), 32 bytes captured (256 bits) on interface 0
USB URB
    [Source: 1.6.0]
    [Destination: host]
    USBPcap pseudoheader length: 28
    IRP ID: 0xffff800307afaaf0
    IRP USBD_STATUS: USBD_STATUS_SUCCESS (0x00000000)
    URB Function: URB_FUNCTION_CONTROL_TRANSFER (0x0008)
    IRP information: 0x01, Direction: PDO -> FDO
        0000 000. = Reserved: 0x00
        .... ...1 = Direction: PDO -> FDO (0x1)
    URB bus id: 1
    Device address: 6
    Endpoint: 0x00, Direction: OUT
        0... .... = Direction: OUT (0)
        .... 0000 = Endpoint number: 0
    URB transfer type: URB_CONTROL (0x02)
    Packet Data Length: 4
    [Request in: 41]
    [Time from request: 0.000201000 seconds]
    Control transfer stage: Data (1)
    [bInterfaceClass: Unknown (0xffff)]
CONTROL response data: 00e10000

0000  1c 00 f0 aa af 07 03 80 ff ff 00 00 00 00 08 00   ................
0010  01 01 00 06 00 00 02 04 00 00 00 01 00 e1 00 00   ................

No.     Time           Source                Destination           Protocol Length Info
     43 0.003162       1.6.0                 host                  USB      28     Unknown type 1e Status

Frame 43: 28 bytes on wire (224 bits), 28 bytes captured (224 bits) on interface 0
USB URB
    [Source: 1.6.0]
    [Destination: host]
    USBPcap pseudoheader length: 28
    IRP ID: 0xffff800307afaaf0
    IRP USBD_STATUS: USBD_STATUS_SUCCESS (0x00000000)
    URB Function: URB_FUNCTION_CONTROL_TRANSFER (0x0008)
    IRP information: 0x01, Direction: PDO -> FDO
        0000 000. = Reserved: 0x00
        .... ...1 = Direction: PDO -> FDO (0x1)
    URB bus id: 1
    Device address: 6
    Endpoint: 0x00, Direction: OUT
        0... .... = Direction: OUT (0)
        .... 0000 = Endpoint number: 0
    URB transfer type: URB_CONTROL (0x02)
    Packet Data Length: 0
    [Request in: 41]
    [Time from request: 0.000214000 seconds]
    Control transfer stage: Status (2)

0000  1c 00 f0 aa af 07 03 80 ff ff 00 00 00 00 08 00   ................
0010  01 01 00 06 00 00 02 00 00 00 00 02               ............

No.     Time           Source                Destination           Protocol Length Info
     44 0.003180       host                  1.6.0                 USB      36     URB_CONTROL out

Frame 44: 36 bytes on wire (288 bits), 36 bytes captured (288 bits) on interface 0
USB URB
    [Source: host]
    [Destination: 1.6.0]
    USBPcap pseudoheader length: 28
    IRP ID: 0xffff800307afaaf0
    IRP USBD_STATUS: USBD_STATUS_SUCCESS (0x00000000)
    URB Function: URB_FUNCTION_CONTROL_TRANSFER (0x0008)
    IRP information: 0x00, Direction: FDO -> PDO
        0000 000. = Reserved: 0x00
        .... ...0 = Direction: FDO -> PDO (0x0)
    URB bus id: 1
    Device address: 6
    Endpoint: 0x00, Direction: OUT
        0... .... = Direction: OUT (0)
        .... 0000 = Endpoint number: 0
    URB transfer type: URB_CONTROL (0x02)
    Packet Data Length: 8
    [Response in: 45]
    Control transfer stage: Setup (0)
    [bInterfaceClass: Unknown (0xffff)]
URB setup
    bmRequestType: 0x41
    bRequest: 7
    wValue: 0x0200
    wIndex: 0 (0x0000)
    wLength: 0

0000  1c 00 f0 aa af 07 03 80 ff ff 00 00 00 00 08 00   ................
0010  00 01 00 06 00 00 02 08 00 00 00 00 41 07 00 02   ............A...
0020  00 00 00 00                                       ....

No.     Time           Source                Destination           Protocol Length Info
     45 0.003252       1.6.0                 host                  USB      28     SET DESCRIPTOR Status

Frame 45: 28 bytes on wire (224 bits), 28 bytes captured (224 bits) on interface 0
USB URB
    [Source: 1.6.0]
    [Destination: host]
    USBPcap pseudoheader length: 28
    IRP ID: 0xffff800307afaaf0
    IRP USBD_STATUS: USBD_STATUS_SUCCESS (0x00000000)
    URB Function: URB_FUNCTION_CONTROL_TRANSFER (0x0008)
    IRP information: 0x01, Direction: PDO -> FDO
        0000 000. = Reserved: 0x00
        .... ...1 = Direction: PDO -> FDO (0x1)
    URB bus id: 1
    Device address: 6
    Endpoint: 0x00, Direction: OUT
        0... .... = Direction: OUT (0)
        .... 0000 = Endpoint number: 0
    URB transfer type: URB_CONTROL (0x02)
    Packet Data Length: 0
    [Request in: 44]
    [Time from request: 0.000072000 seconds]
    Control transfer stage: Status (2)

0000  1c 00 f0 aa af 07 03 80 ff ff 00 00 00 00 08 00   ................
0010  01 01 00 06 00 00 02 00 00 00 00 02               ............

No.     Time           Source                Destination           Protocol Length Info
     46 0.003260       host                  1.6.0                 USB      36     URB_CONTROL in

Frame 46: 36 bytes on wire (288 bits), 36 bytes captured (288 bits) on interface 0
USB URB
    [Source: host]
    [Destination: 1.6.0]
    USBPcap pseudoheader length: 28
    IRP ID: 0xffff800307afaaf0
    IRP USBD_STATUS: USBD_STATUS_SUCCESS (0x00000000)
    URB Function: URB_FUNCTION_CONTROL_TRANSFER (0x0008)
    IRP information: 0x00, Direction: FDO -> PDO
        0000 000. = Reserved: 0x00
        .... ...0 = Direction: FDO -> PDO (0x0)
    URB bus id: 1
    Device address: 6
    Endpoint: 0x80, Direction: IN
        1... .... = Direction: IN (1)
        .... 0000 = Endpoint number: 0
    URB transfer type: URB_CONTROL (0x02)
    Packet Data Length: 8
    [Response in: 48]
    Control transfer stage: Setup (0)
    [bInterfaceClass: Unknown (0xffff)]
URB setup
    bmRequestType: 0xc1
    bRequest: 8
    wValue: 0x0000
    wIndex: 0 (0x0000)
    wLength: 4

0000  1c 00 f0 aa af 07 03 80 ff ff 00 00 00 00 08 00   ................
0010  00 01 00 06 00 80 02 08 00 00 00 00 c1 08 00 00   ................
0020  00 00 04 00                                       ....

No.     Time           Source                Destination           Protocol Length Info
     47 0.003275       host                  1.6.0                 USB      36     URB_CONTROL out

Frame 47: 36 bytes on wire (288 bits), 36 bytes captured (288 bits) on interface 0
USB URB
    [Source: host]
    [Destination: 1.6.0]
    USBPcap pseudoheader length: 28
    IRP ID: 0xffff80030a5f6460
    IRP USBD_STATUS: USBD_STATUS_SUCCESS (0x00000000)
    URB Function: URB_FUNCTION_CONTROL_TRANSFER (0x0008)
    IRP information: 0x00, Direction: FDO -> PDO
        0000 000. = Reserved: 0x00
        .... ...0 = Direction: FDO -> PDO (0x0)
    URB bus id: 1
    Device address: 6
    Endpoint: 0x00, Direction: OUT
        0... .... = Direction: OUT (0)
        .... 0000 = Endpoint number: 0
    URB transfer type: URB_CONTROL (0x02)
    Packet Data Length: 8
    [Response in: 50]
    Control transfer stage: Setup (0)
    [bInterfaceClass: Unknown (0xffff)]
URB setup
    bmRequestType: 0x41
    bRequest: 7
    wValue: 0x0100
    wIndex: 0 (0x0000)
    wLength: 0

0000  1c 00 60 64 5f 0a 03 80 ff ff 00 00 00 00 08 00   ..`d_...........
0010  00 01 00 06 00 00 02 08 00 00 00 00 41 07 00 01   ............A...
0020  00 00 00 00                                       ....

No.     Time           Source                Destination           Protocol Length Info
     48 0.003380       1.6.0                 host                  USB      29     URB_CONTROL in

Frame 48: 29 bytes on wire (232 bits), 29 bytes captured (232 bits) on interface 0
USB URB
    [Source: 1.6.0]
    [Destination: host]
    USBPcap pseudoheader length: 28
    IRP ID: 0xffff800307afaaf0
    IRP USBD_STATUS: USBD_STATUS_SUCCESS (0x00000000)
    URB Function: URB_FUNCTION_CONTROL_TRANSFER (0x0008)
    IRP information: 0x01, Direction: PDO -> FDO
        0000 000. = Reserved: 0x00
        .... ...1 = Direction: PDO -> FDO (0x1)
    URB bus id: 1
    Device address: 6
    Endpoint: 0x80, Direction: IN
        1... .... = Direction: IN (1)
        .... 0000 = Endpoint number: 0
    URB transfer type: URB_CONTROL (0x02)
    Packet Data Length: 1
    [Request in: 46]
    [Time from request: 0.000120000 seconds]
    Control transfer stage: Data (1)
    [bInterfaceClass: Unknown (0xffff)]
CONTROL response data: 00

0000  1c 00 f0 aa af 07 03 80 ff ff 00 00 00 00 08 00   ................
0010  01 01 00 06 00 80 02 01 00 00 00 01 00            .............

No.     Time           Source                Destination           Protocol Length Info
     49 0.003380       1.6.0                 host                  USB      28     GET CONFIGURATION Status

Frame 49: 28 bytes on wire (224 bits), 28 bytes captured (224 bits) on interface 0
USB URB
    [Source: 1.6.0]
    [Destination: host]
    USBPcap pseudoheader length: 28
    IRP ID: 0xffff800307afaaf0
    IRP USBD_STATUS: USBD_STATUS_SUCCESS (0x00000000)
    URB Function: URB_FUNCTION_CONTROL_TRANSFER (0x0008)
    IRP information: 0x01, Direction: PDO -> FDO
        0000 000. = Reserved: 0x00
        .... ...1 = Direction: PDO -> FDO (0x1)
    URB bus id: 1
    Device address: 6
    Endpoint: 0x80, Direction: IN
        1... .... = Direction: IN (1)
        .... 0000 = Endpoint number: 0
    URB transfer type: URB_CONTROL (0x02)
    Packet Data Length: 0
    [Request in: 46]
    [Time from request: 0.000120000 seconds]
    Control transfer stage: Status (2)

0000  1c 00 f0 aa af 07 03 80 ff ff 00 00 00 00 08 00   ................
0010  01 01 00 06 00 80 02 00 00 00 00 02               ............

No.     Time           Source                Destination           Protocol Length Info
     50 0.003430       1.6.0                 host                  USB      28     SET DESCRIPTOR Status

Frame 50: 28 bytes on wire (224 bits), 28 bytes captured (224 bits) on interface 0
USB URB
    [Source: 1.6.0]
    [Destination: host]
    USBPcap pseudoheader length: 28
    IRP ID: 0xffff80030a5f6460
    IRP USBD_STATUS: USBD_STATUS_SUCCESS (0x00000000)
    URB Function: URB_FUNCTION_CONTROL_TRANSFER (0x0008)
    IRP information: 0x01, Direction: PDO -> FDO
        0000 000. = Reserved: 0x00
        .... ...1 = Direction: PDO -> FDO (0x1)
    URB bus id: 1
    Device address: 6
    Endpoint: 0x00, Direction: OUT
        0... .... = Direction: OUT (0)
        .... 0000 = Endpoint number: 0
    URB transfer type: URB_CONTROL (0x02)
    Packet Data Length: 0
    [Request in: 47]
    [Time from request: 0.000155000 seconds]
    Control transfer stage: Status (2)

0000  1c 00 60 64 5f 0a 03 80 ff ff 00 00 00 00 08 00   ..`d_...........
0010  01 01 00 06 00 00 02 00 00 00 00 02               ............

No.     Time           Source                Destination           Protocol Length Info
     51 0.003438       host                  1.6.0                 USB      36     URB_CONTROL in

Frame 51: 36 bytes on wire (288 bits), 36 bytes captured (288 bits) on interface 0
USB URB
    [Source: host]
    [Destination: 1.6.0]
    USBPcap pseudoheader length: 28
    IRP ID: 0xffff80030a5f6460
    IRP USBD_STATUS: USBD_STATUS_SUCCESS (0x00000000)
    URB Function: URB_FUNCTION_CONTROL_TRANSFER (0x0008)
    IRP information: 0x00, Direction: FDO -> PDO
        0000 000. = Reserved: 0x00
        .... ...0 = Direction: FDO -> PDO (0x0)
    URB bus id: 1
    Device address: 6
    Endpoint: 0x80, Direction: IN
        1... .... = Direction: IN (1)
        .... 0000 = Endpoint number: 0
    URB transfer type: URB_CONTROL (0x02)
    Packet Data Length: 8
    [Response in: 53]
    Control transfer stage: Setup (0)
    [bInterfaceClass: Unknown (0xffff)]
URB setup
    bmRequestType: 0xc1
    bRequest: 8
    wValue: 0x0000
    wIndex: 0 (0x0000)
    wLength: 4

0000  1c 00 60 64 5f 0a 03 80 ff ff 00 00 00 00 08 00   ..`d_...........
0010  00 01 00 06 00 80 02 08 00 00 00 00 c1 08 00 00   ................
0020  00 00 04 00                                       ....

No.     Time           Source                Destination           Protocol Length Info
     52 0.003447       host                  1.6.0                 USB      36     URB_CONTROL out

Frame 52: 36 bytes on wire (288 bits), 36 bytes captured (288 bits) on interface 0
USB URB
    [Source: host]
    [Destination: 1.6.0]
    USBPcap pseudoheader length: 28
    IRP ID: 0xffff80030740f6e0
    IRP USBD_STATUS: USBD_STATUS_SUCCESS (0x00000000)
    URB Function: URB_FUNCTION_CONTROL_TRANSFER (0x0008)
    IRP information: 0x00, Direction: FDO -> PDO
        0000 000. = Reserved: 0x00
        .... ...0 = Direction: FDO -> PDO (0x0)
    URB bus id: 1
    Device address: 6
    Endpoint: 0x00, Direction: OUT
        0... .... = Direction: OUT (0)
        .... 0000 = Endpoint number: 0
    URB transfer type: URB_CONTROL (0x02)
    Packet Data Length: 8
    [Response in: 55]
    Control transfer stage: Setup (0)
    [bInterfaceClass: Unknown (0xffff)]
URB setup
    bmRequestType: 0x41
    bRequest: 3
    wValue: 0x0800
    wIndex: 0 (0x0000)
    wLength: 0

0000  1c 00 e0 f6 40 07 03 80 ff ff 00 00 00 00 08 00   ....@...........
0010  00 01 00 06 00 00 02 08 00 00 00 00 41 03 00 08   ............A...
0020  00 00 00 00                                       ....

No.     Time           Source                Destination           Protocol Length Info
     53 0.003558       1.6.0                 host                  USB      29     URB_CONTROL in

Frame 53: 29 bytes on wire (232 bits), 29 bytes captured (232 bits) on interface 0
USB URB
    [Source: 1.6.0]
    [Destination: host]
    USBPcap pseudoheader length: 28
    IRP ID: 0xffff80030a5f6460
    IRP USBD_STATUS: USBD_STATUS_SUCCESS (0x00000000)
    URB Function: URB_FUNCTION_CONTROL_TRANSFER (0x0008)
    IRP information: 0x01, Direction: PDO -> FDO
        0000 000. = Reserved: 0x00
        .... ...1 = Direction: PDO -> FDO (0x1)
    URB bus id: 1
    Device address: 6
    Endpoint: 0x80, Direction: IN
        1... .... = Direction: IN (1)
        .... 0000 = Endpoint number: 0
    URB transfer type: URB_CONTROL (0x02)
    Packet Data Length: 1
    [Request in: 51]
    [Time from request: 0.000120000 seconds]
    Control transfer stage: Data (1)
    [bInterfaceClass: Unknown (0xffff)]
CONTROL response data: 00

0000  1c 00 60 64 5f 0a 03 80 ff ff 00 00 00 00 08 00   ..`d_...........
0010  01 01 00 06 00 80 02 01 00 00 00 01 00            .............

No.     Time           Source                Destination           Protocol Length Info
     54 0.003559       1.6.0                 host                  USB      28     GET CONFIGURATION Status

Frame 54: 28 bytes on wire (224 bits), 28 bytes captured (224 bits) on interface 0
USB URB
    [Source: 1.6.0]
    [Destination: host]
    USBPcap pseudoheader length: 28
    IRP ID: 0xffff80030a5f6460
    IRP USBD_STATUS: USBD_STATUS_SUCCESS (0x00000000)
    URB Function: URB_FUNCTION_CONTROL_TRANSFER (0x0008)
    IRP information: 0x01, Direction: PDO -> FDO
        0000 000. = Reserved: 0x00
        .... ...1 = Direction: PDO -> FDO (0x1)
    URB bus id: 1
    Device address: 6
    Endpoint: 0x80, Direction: IN
        1... .... = Direction: IN (1)
        .... 0000 = Endpoint number: 0
    URB transfer type: URB_CONTROL (0x02)
    Packet Data Length: 0
    [Request in: 51]
    [Time from request: 0.000121000 seconds]
    Control transfer stage: Status (2)

0000  1c 00 60 64 5f 0a 03 80 ff ff 00 00 00 00 08 00   ..`d_...........
0010  01 01 00 06 00 80 02 00 00 00 00 02               ............

No.     Time           Source                Destination           Protocol Length Info
     55 0.003720       1.6.0                 host                  USB      28     SET FEATURE Status

Frame 55: 28 bytes on wire (224 bits), 28 bytes captured (224 bits) on interface 0
USB URB
    [Source: 1.6.0]
    [Destination: host]
    USBPcap pseudoheader length: 28
    IRP ID: 0xffff80030740f6e0
    IRP USBD_STATUS: USBD_STATUS_SUCCESS (0x00000000)
    URB Function: URB_FUNCTION_CONTROL_TRANSFER (0x0008)
    IRP information: 0x01, Direction: PDO -> FDO
        0000 000. = Reserved: 0x00
        .... ...1 = Direction: PDO -> FDO (0x1)
    URB bus id: 1
    Device address: 6
    Endpoint: 0x00, Direction: OUT
        0... .... = Direction: OUT (0)
        .... 0000 = Endpoint number: 0
    URB transfer type: URB_CONTROL (0x02)
    Packet Data Length: 0
    [Request in: 52]
    [Time from request: 0.000273000 seconds]
    Control transfer stage: Status (2)

0000  1c 00 e0 f6 40 07 03 80 ff ff 00 00 00 00 08 00   ....@...........
0010  01 01 00 06 00 00 02 00 00 00 00 02               ............

No.     Time           Source                Destination           Protocol Length Info
     56 0.003734       host                  1.6.0                 USB      36     URB_CONTROL out

Frame 56: 36 bytes on wire (288 bits), 36 bytes captured (288 bits) on interface 0
USB URB
    [Source: host]
    [Destination: 1.6.0]
    USBPcap pseudoheader length: 28
    IRP ID: 0xffff80030a5f6460
    IRP USBD_STATUS: USBD_STATUS_SUCCESS (0x00000000)
    URB Function: URB_FUNCTION_CONTROL_TRANSFER (0x0008)
    IRP information: 0x00, Direction: FDO -> PDO
        0000 000. = Reserved: 0x00
        .... ...0 = Direction: FDO -> PDO (0x0)
    URB bus id: 1
    Device address: 6
    Endpoint: 0x00, Direction: OUT
        0... .... = Direction: OUT (0)
        .... 0000 = Endpoint number: 0
    URB transfer type: URB_CONTROL (0x02)
    Packet Data Length: 8
    [Response in: 57]
    Control transfer stage: Setup (0)
    [bInterfaceClass: Unknown (0xffff)]
URB setup
    bmRequestType: 0x41
    bRequest: 25
    wValue: 0x0000
    wIndex: 0 (0x0000)
    wLength: 6

0000  1c 00 60 64 5f 0a 03 80 ff ff 00 00 00 00 08 00   ..`d_...........
0010  00 01 00 06 00 00 02 08 00 00 00 00 41 19 00 00   ............A...
0020  00 00 06 00                                       ....

No.     Time           Source                Destination           Protocol Length Info
     57 0.003861       1.6.0                 host                  USB      34     URB_CONTROL out

Frame 57: 34 bytes on wire (272 bits), 34 bytes captured (272 bits) on interface 0
USB URB
    [Source: 1.6.0]
    [Destination: host]
    USBPcap pseudoheader length: 28
    IRP ID: 0xffff80030a5f6460
    IRP USBD_STATUS: USBD_STATUS_SUCCESS (0x00000000)
    URB Function: URB_FUNCTION_CONTROL_TRANSFER (0x0008)
    IRP information: 0x01, Direction: PDO -> FDO
        0000 000. = Reserved: 0x00
        .... ...1 = Direction: PDO -> FDO (0x1)
    URB bus id: 1
    Device address: 6
    Endpoint: 0x00, Direction: OUT
        0... .... = Direction: OUT (0)
        .... 0000 = Endpoint number: 0
    URB transfer type: URB_CONTROL (0x02)
    Packet Data Length: 6
    [Request in: 56]
    [Time from request: 0.000127000 seconds]
    Control transfer stage: Data (1)
    [bInterfaceClass: Unknown (0xffff)]
CONTROL response data: 000000001113

0000  1c 00 60 64 5f 0a 03 80 ff ff 00 00 00 00 08 00   ..`d_...........
0010  01 01 00 06 00 00 02 06 00 00 00 01 00 00 00 00   ................
0020  11 13                                             ..

No.     Time           Source                Destination           Protocol Length Info
     58 0.003861       1.6.0                 host                  USB      28     Unknown type 19 Status

Frame 58: 28 bytes on wire (224 bits), 28 bytes captured (224 bits) on interface 0
USB URB
    [Source: 1.6.0]
    [Destination: host]
    USBPcap pseudoheader length: 28
    IRP ID: 0xffff80030a5f6460
    IRP USBD_STATUS: USBD_STATUS_SUCCESS (0x00000000)
    URB Function: URB_FUNCTION_CONTROL_TRANSFER (0x0008)
    IRP information: 0x01, Direction: PDO -> FDO
        0000 000. = Reserved: 0x00
        .... ...1 = Direction: PDO -> FDO (0x1)
    URB bus id: 1
    Device address: 6
    Endpoint: 0x00, Direction: OUT
        0... .... = Direction: OUT (0)
        .... 0000 = Endpoint number: 0
    URB transfer type: URB_CONTROL (0x02)
    Packet Data Length: 0
    [Request in: 56]
    [Time from request: 0.000127000 seconds]
    Control transfer stage: Status (2)

0000  1c 00 60 64 5f 0a 03 80 ff ff 00 00 00 00 08 00   ..`d_...........
0010  01 01 00 06 00 00 02 00 00 00 00 02               ............

No.     Time           Source                Destination           Protocol Length Info
     59 0.003875       host                  1.6.0                 USB      36     URB_CONTROL out

Frame 59: 36 bytes on wire (288 bits), 36 bytes captured (288 bits) on interface 0
USB URB
    [Source: host]
    [Destination: 1.6.0]
    USBPcap pseudoheader length: 28
    IRP ID: 0xffff80030a5f6460
    IRP USBD_STATUS: USBD_STATUS_SUCCESS (0x00000000)
    URB Function: URB_FUNCTION_CONTROL_TRANSFER (0x0008)
    IRP information: 0x00, Direction: FDO -> PDO
        0000 000. = Reserved: 0x00
        .... ...0 = Direction: FDO -> PDO (0x0)
    URB bus id: 1
    Device address: 6
    Endpoint: 0x00, Direction: OUT
        0... .... = Direction: OUT (0)
        .... 0000 = Endpoint number: 0
    URB transfer type: URB_CONTROL (0x02)
    Packet Data Length: 8
    [Response in: 60]
    Control transfer stage: Setup (0)
    [bInterfaceClass: Unknown (0xffff)]
URB setup
    bmRequestType: 0x41
    bRequest: 19
    wValue: 0x0000
    wIndex: 0 (0x0000)
    wLength: 16

0000  1c 00 60 64 5f 0a 03 80 ff ff 00 00 00 00 08 00   ..`d_...........
0010  00 01 00 06 00 00 02 08 00 00 00 00 41 13 00 00   ............A...
0020  00 00 10 00                                       ....

No.     Time           Source                Destination           Protocol Length Info
     60 0.003980       1.6.0                 host                  USB      44     URB_CONTROL out

Frame 60: 44 bytes on wire (352 bits), 44 bytes captured (352 bits) on interface 0
USB URB
    [Source: 1.6.0]
    [Destination: host]
    USBPcap pseudoheader length: 28
    IRP ID: 0xffff80030a5f6460
    IRP USBD_STATUS: USBD_STATUS_SUCCESS (0x00000000)
    URB Function: URB_FUNCTION_CONTROL_TRANSFER (0x0008)
    IRP information: 0x01, Direction: PDO -> FDO
        0000 000. = Reserved: 0x00
        .... ...1 = Direction: PDO -> FDO (0x1)
    URB bus id: 1
    Device address: 6
    Endpoint: 0x00, Direction: OUT
        0... .... = Direction: OUT (0)
        .... 0000 = Endpoint number: 0
    URB transfer type: URB_CONTROL (0x02)
    Packet Data Length: 16
    [Request in: 59]
    [Time from request: 0.000105000 seconds]
    Control transfer stage: Data (1)
    [bInterfaceClass: Unknown (0xffff)]
CONTROL response data: 00000000000000003200000034000000

0000  1c 00 60 64 5f 0a 03 80 ff ff 00 00 00 00 08 00   ..`d_...........
0010  01 01 00 06 00 00 02 10 00 00 00 01 00 00 00 00   ................
0020  00 00 00 00 32 00 00 00 34 00 00 00               ....2...4...

No.     Time           Source                Destination           Protocol Length Info
     61 0.004008       1.6.0                 host                  USB      28     Unknown type 13 Status

Frame 61: 28 bytes on wire (224 bits), 28 bytes captured (224 bits) on interface 0
USB URB
    [Source: 1.6.0]
    [Destination: host]
    USBPcap pseudoheader length: 28
    IRP ID: 0xffff80030a5f6460
    IRP USBD_STATUS: USBD_STATUS_SUCCESS (0x00000000)
    URB Function: URB_FUNCTION_CONTROL_TRANSFER (0x0008)
    IRP information: 0x01, Direction: PDO -> FDO
        0000 000. = Reserved: 0x00
        .... ...1 = Direction: PDO -> FDO (0x1)
    URB bus id: 1
    Device address: 6
    Endpoint: 0x00, Direction: OUT
        0... .... = Direction: OUT (0)
        .... 0000 = Endpoint number: 0
    URB transfer type: URB_CONTROL (0x02)
    Packet Data Length: 0
    [Request in: 59]
    [Time from request: 0.000133000 seconds]
    Control transfer stage: Status (2)

0000  1c 00 60 64 5f 0a 03 80 ff ff 00 00 00 00 08 00   ..`d_...........
0010  01 01 00 06 00 00 02 00 00 00 00 02               ............

No.     Time           Source                Destination           Protocol Length Info
     62 0.004066       host                  1.6.0                 USB      36     URB_CONTROL out

Frame 62: 36 bytes on wire (288 bits), 36 bytes captured (288 bits) on interface 0
USB URB
    [Source: host]
    [Destination: 1.6.0]
    USBPcap pseudoheader length: 28
    IRP ID: 0xffff80030a5f6460
    IRP USBD_STATUS: USBD_STATUS_SUCCESS (0x00000000)
    URB Function: URB_FUNCTION_CONTROL_TRANSFER (0x0008)
    IRP information: 0x00, Direction: FDO -> PDO
        0000 000. = Reserved: 0x00
        .... ...0 = Direction: FDO -> PDO (0x0)
    URB bus id: 1
    Device address: 6
    Endpoint: 0x00, Direction: OUT
        0... .... = Direction: OUT (0)
        .... 0000 = Endpoint number: 0
    URB transfer type: URB_CONTROL (0x02)
    Packet Data Length: 8
    [Response in: 63]
    Control transfer stage: Setup (0)
    [bInterfaceClass: Unknown (0xffff)]
URB setup
    bmRequestType: 0x41
    bRequest: 30
    wValue: 0x0000
    wIndex: 0 (0x0000)
    wLength: 4

0000  1c 00 60 64 5f 0a 03 80 ff ff 00 00 00 00 08 00   ..`d_...........
0010  00 01 00 06 00 00 02 08 00 00 00 00 41 1e 00 00   ............A...
0020  00 00 04 00                                       ....

No.     Time           Source                Destination           Protocol Length Info
     63 0.004246       1.6.0                 host                  USB      32     URB_CONTROL out

Frame 63: 32 bytes on wire (256 bits), 32 bytes captured (256 bits) on interface 0
USB URB
    [Source: 1.6.0]
    [Destination: host]
    USBPcap pseudoheader length: 28
    IRP ID: 0xffff80030a5f6460
    IRP USBD_STATUS: USBD_STATUS_SUCCESS (0x00000000)
    URB Function: URB_FUNCTION_CONTROL_TRANSFER (0x0008)
    IRP information: 0x01, Direction: PDO -> FDO
        0000 000. = Reserved: 0x00
        .... ...1 = Direction: PDO -> FDO (0x1)
    URB bus id: 1
    Device address: 6
    Endpoint: 0x00, Direction: OUT
        0... .... = Direction: OUT (0)
        .... 0000 = Endpoint number: 0
    URB transfer type: URB_CONTROL (0x02)
    Packet Data Length: 4
    [Request in: 62]
    [Time from request: 0.000180000 seconds]
    Control transfer stage: Data (1)
    [bInterfaceClass: Unknown (0xffff)]
CONTROL response data: 00e10000

0000  1c 00 60 64 5f 0a 03 80 ff ff 00 00 00 00 08 00   ..`d_...........
0010  01 01 00 06 00 00 02 04 00 00 00 01 00 e1 00 00   ................

No.     Time           Source                Destination           Protocol Length Info
     64 0.004262       1.6.0                 host                  USB      28     Unknown type 1e Status

Frame 64: 28 bytes on wire (224 bits), 28 bytes captured (224 bits) on interface 0
USB URB
    [Source: 1.6.0]
    [Destination: host]
    USBPcap pseudoheader length: 28
    IRP ID: 0xffff80030a5f6460
    IRP USBD_STATUS: USBD_STATUS_SUCCESS (0x00000000)
    URB Function: URB_FUNCTION_CONTROL_TRANSFER (0x0008)
    IRP information: 0x01, Direction: PDO -> FDO
        0000 000. = Reserved: 0x00
        .... ...1 = Direction: PDO -> FDO (0x1)
    URB bus id: 1
    Device address: 6
    Endpoint: 0x00, Direction: OUT
        0... .... = Direction: OUT (0)
        .... 0000 = Endpoint number: 0
    URB transfer type: URB_CONTROL (0x02)
    Packet Data Length: 0
    [Request in: 62]
    [Time from request: 0.000196000 seconds]
    Control transfer stage: Status (2)

0000  1c 00 60 64 5f 0a 03 80 ff ff 00 00 00 00 08 00   ..`d_...........
0010  01 01 00 06 00 00 02 00 00 00 00 02               ............

No.     Time           Source                Destination           Protocol Length Info
     65 0.004277       host                  1.6.0                 USB      36     URB_CONTROL out

Frame 65: 36 bytes on wire (288 bits), 36 bytes captured (288 bits) on interface 0
USB URB
    [Source: host]
    [Destination: 1.6.0]
    USBPcap pseudoheader length: 28
    IRP ID: 0xffff80030a5f6460
    IRP USBD_STATUS: USBD_STATUS_SUCCESS (0x00000000)
    URB Function: URB_FUNCTION_CONTROL_TRANSFER (0x0008)
    IRP information: 0x00, Direction: FDO -> PDO
        0000 000. = Reserved: 0x00
        .... ...0 = Direction: FDO -> PDO (0x0)
    URB bus id: 1
    Device address: 6
    Endpoint: 0x00, Direction: OUT
        0... .... = Direction: OUT (0)
        .... 0000 = Endpoint number: 0
    URB transfer type: URB_CONTROL (0x02)
    Packet Data Length: 8
    [Response in: 66]
    Control transfer stage: Setup (0)
    [bInterfaceClass: Unknown (0xffff)]
URB setup
    bmRequestType: 0x41
    bRequest: 7
    wValue: 0x0200
    wIndex: 0 (0x0000)
    wLength: 0

0000  1c 00 60 64 5f 0a 03 80 ff ff 00 00 00 00 08 00   ..`d_...........
0010  00 01 00 06 00 00 02 08 00 00 00 00 41 07 00 02   ............A...
0020  00 00 00 00                                       ....

No.     Time           Source                Destination           Protocol Length Info
     66 0.004314       1.6.0                 host                  USB      28     SET DESCRIPTOR Status

Frame 66: 28 bytes on wire (224 bits), 28 bytes captured (224 bits) on interface 0
USB URB
    [Source: 1.6.0]
    [Destination: host]
    USBPcap pseudoheader length: 28
    IRP ID: 0xffff80030a5f6460
    IRP USBD_STATUS: USBD_STATUS_SUCCESS (0x00000000)
    URB Function: URB_FUNCTION_CONTROL_TRANSFER (0x0008)
    IRP information: 0x01, Direction: PDO -> FDO
        0000 000. = Reserved: 0x00
        .... ...1 = Direction: PDO -> FDO (0x1)
    URB bus id: 1
    Device address: 6
    Endpoint: 0x00, Direction: OUT
        0... .... = Direction: OUT (0)
        .... 0000 = Endpoint number: 0
    URB transfer type: URB_CONTROL (0x02)
    Packet Data Length: 0
    [Request in: 65]
    [Time from request: 0.000037000 seconds]
    Control transfer stage: Status (2)

0000  1c 00 60 64 5f 0a 03 80 ff ff 00 00 00 00 08 00   ..`d_...........
0010  01 01 00 06 00 00 02 00 00 00 00 02               ............

No.     Time           Source                Destination           Protocol Length Info
     67 0.004322       host                  1.6.0                 USB      36     URB_CONTROL in

Frame 67: 36 bytes on wire (288 bits), 36 bytes captured (288 bits) on interface 0
USB URB
    [Source: host]
    [Destination: 1.6.0]
    USBPcap pseudoheader length: 28
    IRP ID: 0xffff80030a5f6460
    IRP USBD_STATUS: USBD_STATUS_SUCCESS (0x00000000)
    URB Function: URB_FUNCTION_CONTROL_TRANSFER (0x0008)
    IRP information: 0x00, Direction: FDO -> PDO
        0000 000. = Reserved: 0x00
        .... ...0 = Direction: FDO -> PDO (0x0)
    URB bus id: 1
    Device address: 6
    Endpoint: 0x80, Direction: IN
        1... .... = Direction: IN (1)
        .... 0000 = Endpoint number: 0
    URB transfer type: URB_CONTROL (0x02)
    Packet Data Length: 8
    [Response in: 69]
    Control transfer stage: Setup (0)
    [bInterfaceClass: Unknown (0xffff)]
URB setup
    bmRequestType: 0xc1
    bRequest: 8
    wValue: 0x0000
    wIndex: 0 (0x0000)
    wLength: 4

0000  1c 00 60 64 5f 0a 03 80 ff ff 00 00 00 00 08 00   ..`d_...........
0010  00 01 00 06 00 80 02 08 00 00 00 00 c1 08 00 00   ................
0020  00 00 04 00                                       ....

No.     Time           Source                Destination           Protocol Length Info
     68 0.004338       host                  1.6.0                 USB      36     URB_CONTROL out

Frame 68: 36 bytes on wire (288 bits), 36 bytes captured (288 bits) on interface 0
USB URB
    [Source: host]
    [Destination: 1.6.0]
    USBPcap pseudoheader length: 28
    IRP ID: 0xffff800307afaaf0
    IRP USBD_STATUS: USBD_STATUS_SUCCESS (0x00000000)
    URB Function: URB_FUNCTION_CONTROL_TRANSFER (0x0008)
    IRP information: 0x00, Direction: FDO -> PDO
        0000 000. = Reserved: 0x00
        .... ...0 = Direction: FDO -> PDO (0x0)
    URB bus id: 1
    Device address: 6
    Endpoint: 0x00, Direction: OUT
        0... .... = Direction: OUT (0)
        .... 0000 = Endpoint number: 0
    URB transfer type: URB_CONTROL (0x02)
    Packet Data Length: 8
    [Response in: 71]
    Control transfer stage: Setup (0)
    [bInterfaceClass: Unknown (0xffff)]
URB setup
    bmRequestType: 0x41
    bRequest: 7
    wValue: 0x0100
    wIndex: 0 (0x0000)
    wLength: 0

0000  1c 00 f0 aa af 07 03 80 ff ff 00 00 00 00 08 00   ................
0010  00 01 00 06 00 00 02 08 00 00 00 00 41 07 00 01   ............A...
0020  00 00 00 00                                       ....

No.     Time           Source                Destination           Protocol Length Info
     69 0.004438       1.6.0                 host                  USB      29     URB_CONTROL in

Frame 69: 29 bytes on wire (232 bits), 29 bytes captured (232 bits) on interface 0
USB URB
    [Source: 1.6.0]
    [Destination: host]
    USBPcap pseudoheader length: 28
    IRP ID: 0xffff80030a5f6460
    IRP USBD_STATUS: USBD_STATUS_SUCCESS (0x00000000)
    URB Function: URB_FUNCTION_CONTROL_TRANSFER (0x0008)
    IRP information: 0x01, Direction: PDO -> FDO
        0000 000. = Reserved: 0x00
        .... ...1 = Direction: PDO -> FDO (0x1)
    URB bus id: 1
    Device address: 6
    Endpoint: 0x80, Direction: IN
        1... .... = Direction: IN (1)
        .... 0000 = Endpoint number: 0
    URB transfer type: URB_CONTROL (0x02)
    Packet Data Length: 1
    [Request in: 67]
    [Time from request: 0.000116000 seconds]
    Control transfer stage: Data (1)
    [bInterfaceClass: Unknown (0xffff)]
CONTROL response data: 00

0000  1c 00 60 64 5f 0a 03 80 ff ff 00 00 00 00 08 00   ..`d_...........
0010  01 01 00 06 00 80 02 01 00 00 00 01 00            .............

No.     Time           Source                Destination           Protocol Length Info
     70 0.004439       1.6.0                 host                  USB      28     GET CONFIGURATION Status

Frame 70: 28 bytes on wire (224 bits), 28 bytes captured (224 bits) on interface 0
USB URB
    [Source: 1.6.0]
    [Destination: host]
    USBPcap pseudoheader length: 28
    IRP ID: 0xffff80030a5f6460
    IRP USBD_STATUS: USBD_STATUS_SUCCESS (0x00000000)
    URB Function: URB_FUNCTION_CONTROL_TRANSFER (0x0008)
    IRP information: 0x01, Direction: PDO -> FDO
        0000 000. = Reserved: 0x00
        .... ...1 = Direction: PDO -> FDO (0x1)
    URB bus id: 1
    Device address: 6
    Endpoint: 0x80, Direction: IN
        1... .... = Direction: IN (1)
        .... 0000 = Endpoint number: 0
    URB transfer type: URB_CONTROL (0x02)
    Packet Data Length: 0
    [Request in: 67]
    [Time from request: 0.000117000 seconds]
    Control transfer stage: Status (2)

0000  1c 00 60 64 5f 0a 03 80 ff ff 00 00 00 00 08 00   ..`d_...........
0010  01 01 00 06 00 80 02 00 00 00 00 02               ............

No.     Time           Source                Destination           Protocol Length Info
     71 0.004490       1.6.0                 host                  USB      28     SET DESCRIPTOR Status

Frame 71: 28 bytes on wire (224 bits), 28 bytes captured (224 bits) on interface 0
USB URB
    [Source: 1.6.0]
    [Destination: host]
    USBPcap pseudoheader length: 28
    IRP ID: 0xffff800307afaaf0
    IRP USBD_STATUS: USBD_STATUS_SUCCESS (0x00000000)
    URB Function: URB_FUNCTION_CONTROL_TRANSFER (0x0008)
    IRP information: 0x01, Direction: PDO -> FDO
        0000 000. = Reserved: 0x00
        .... ...1 = Direction: PDO -> FDO (0x1)
    URB bus id: 1
    Device address: 6
    Endpoint: 0x00, Direction: OUT
        0... .... = Direction: OUT (0)
        .... 0000 = Endpoint number: 0
    URB transfer type: URB_CONTROL (0x02)
    Packet Data Length: 0
    [Request in: 68]
    [Time from request: 0.000152000 seconds]
    Control transfer stage: Status (2)

0000  1c 00 f0 aa af 07 03 80 ff ff 00 00 00 00 08 00   ................
0010  01 01 00 06 00 00 02 00 00 00 00 02               ............

No.     Time           Source                Destination           Protocol Length Info
     72 0.004496       host                  1.6.0                 USB      36     URB_CONTROL in

Frame 72: 36 bytes on wire (288 bits), 36 bytes captured (288 bits) on interface 0
USB URB
    [Source: host]
    [Destination: 1.6.0]
    USBPcap pseudoheader length: 28
    IRP ID: 0xffff800307afaaf0
    IRP USBD_STATUS: USBD_STATUS_SUCCESS (0x00000000)
    URB Function: URB_FUNCTION_CONTROL_TRANSFER (0x0008)
    IRP information: 0x00, Direction: FDO -> PDO
        0000 000. = Reserved: 0x00
        .... ...0 = Direction: FDO -> PDO (0x0)
    URB bus id: 1
    Device address: 6
    Endpoint: 0x80, Direction: IN
        1... .... = Direction: IN (1)
        .... 0000 = Endpoint number: 0
    URB transfer type: URB_CONTROL (0x02)
    Packet Data Length: 8
    [Response in: 74]
    Control transfer stage: Setup (0)
    [bInterfaceClass: Unknown (0xffff)]
URB setup
    bmRequestType: 0xc1
    bRequest: 8
    wValue: 0x0000
    wIndex: 0 (0x0000)
    wLength: 4

0000  1c 00 f0 aa af 07 03 80 ff ff 00 00 00 00 08 00   ................
0010  00 01 00 06 00 80 02 08 00 00 00 00 c1 08 00 00   ................
0020  00 00 04 00                                       ....

No.     Time           Source                Destination           Protocol Length Info
     73 0.004506       host                  1.6.0                 USB      36     URB_CONTROL out

Frame 73: 36 bytes on wire (288 bits), 36 bytes captured (288 bits) on interface 0
USB URB
    [Source: host]
    [Destination: 1.6.0]
    USBPcap pseudoheader length: 28
    IRP ID: 0xffff80030abac350
    IRP USBD_STATUS: USBD_STATUS_SUCCESS (0x00000000)
    URB Function: URB_FUNCTION_CONTROL_TRANSFER (0x0008)
    IRP information: 0x00, Direction: FDO -> PDO
        0000 000. = Reserved: 0x00
        .... ...0 = Direction: FDO -> PDO (0x0)
    URB bus id: 1
    Device address: 6
    Endpoint: 0x00, Direction: OUT
        0... .... = Direction: OUT (0)
        .... 0000 = Endpoint number: 0
    URB transfer type: URB_CONTROL (0x02)
    Packet Data Length: 8
    [Response in: 76]
    Control transfer stage: Setup (0)
    [bInterfaceClass: Unknown (0xffff)]
URB setup
    bmRequestType: 0x41
    bRequest: 3
    wValue: 0x0800
    wIndex: 0 (0x0000)
    wLength: 0

0000  1c 00 50 c3 ba 0a 03 80 ff ff 00 00 00 00 08 00   ..P.............
0010  00 01 00 06 00 00 02 08 00 00 00 00 41 03 00 08   ............A...
0020  00 00 00 00                                       ....

No.     Time           Source                Destination           Protocol Length Info
     74 0.004661       1.6.0                 host                  USB      29     URB_CONTROL in

Frame 74: 29 bytes on wire (232 bits), 29 bytes captured (232 bits) on interface 0
USB URB
    [Source: 1.6.0]
    [Destination: host]
    USBPcap pseudoheader length: 28
    IRP ID: 0xffff800307afaaf0
    IRP USBD_STATUS: USBD_STATUS_SUCCESS (0x00000000)
    URB Function: URB_FUNCTION_CONTROL_TRANSFER (0x0008)
    IRP information: 0x01, Direction: PDO -> FDO
        0000 000. = Reserved: 0x00
        .... ...1 = Direction: PDO -> FDO (0x1)
    URB bus id: 1
    Device address: 6
    Endpoint: 0x80, Direction: IN
        1... .... = Direction: IN (1)
        .... 0000 = Endpoint number: 0
    URB transfer type: URB_CONTROL (0x02)
    Packet Data Length: 1
    [Request in: 72]
    [Time from request: 0.000165000 seconds]
    Control transfer stage: Data (1)
    [bInterfaceClass: Unknown (0xffff)]
CONTROL response data: 00

0000  1c 00 f0 aa af 07 03 80 ff ff 00 00 00 00 08 00   ................
0010  01 01 00 06 00 80 02 01 00 00 00 01 00            .............

No.     Time           Source                Destination           Protocol Length Info
     75 0.004661       1.6.0                 host                  USB      28     GET CONFIGURATION Status

Frame 75: 28 bytes on wire (224 bits), 28 bytes captured (224 bits) on interface 0
USB URB
    [Source: 1.6.0]
    [Destination: host]
    USBPcap pseudoheader length: 28
    IRP ID: 0xffff800307afaaf0
    IRP USBD_STATUS: USBD_STATUS_SUCCESS (0x00000000)
    URB Function: URB_FUNCTION_CONTROL_TRANSFER (0x0008)
    IRP information: 0x01, Direction: PDO -> FDO
        0000 000. = Reserved: 0x00
        .... ...1 = Direction: PDO -> FDO (0x1)
    URB bus id: 1
    Device address: 6
    Endpoint: 0x80, Direction: IN
        1... .... = Direction: IN (1)
        .... 0000 = Endpoint number: 0
    URB transfer type: URB_CONTROL (0x02)
    Packet Data Length: 0
    [Request in: 72]
    [Time from request: 0.000165000 seconds]
    Control transfer stage: Status (2)

0000  1c 00 f0 aa af 07 03 80 ff ff 00 00 00 00 08 00   ................
0010  01 01 00 06 00 80 02 00 00 00 00 02               ............

No.     Time           Source                Destination           Protocol Length Info
     76 0.004794       1.6.0                 host                  USB      28     SET FEATURE Status

Frame 76: 28 bytes on wire (224 bits), 28 bytes captured (224 bits) on interface 0
USB URB
    [Source: 1.6.0]
    [Destination: host]
    USBPcap pseudoheader length: 28
    IRP ID: 0xffff80030abac350
    IRP USBD_STATUS: USBD_STATUS_SUCCESS (0x00000000)
    URB Function: URB_FUNCTION_CONTROL_TRANSFER (0x0008)
    IRP information: 0x01, Direction: PDO -> FDO
        0000 000. = Reserved: 0x00
        .... ...1 = Direction: PDO -> FDO (0x1)
    URB bus id: 1
    Device address: 6
    Endpoint: 0x00, Direction: OUT
        0... .... = Direction: OUT (0)
        .... 0000 = Endpoint number: 0
    URB transfer type: URB_CONTROL (0x02)
    Packet Data Length: 0
    [Request in: 73]
    [Time from request: 0.000288000 seconds]
    Control transfer stage: Status (2)

0000  1c 00 50 c3 ba 0a 03 80 ff ff 00 00 00 00 08 00   ..P.............
0010  01 01 00 06 00 00 02 00 00 00 00 02               ............

No.     Time           Source                Destination           Protocol Length Info
     77 0.004805       host                  1.6.0                 USB      36     URB_CONTROL out

Frame 77: 36 bytes on wire (288 bits), 36 bytes captured (288 bits) on interface 0
USB URB
    [Source: host]
    [Destination: 1.6.0]
    USBPcap pseudoheader length: 28
    IRP ID: 0xffff80030abac350
    IRP USBD_STATUS: USBD_STATUS_SUCCESS (0x00000000)
    URB Function: URB_FUNCTION_CONTROL_TRANSFER (0x0008)
    IRP information: 0x00, Direction: FDO -> PDO
        0000 000. = Reserved: 0x00
        .... ...0 = Direction: FDO -> PDO (0x0)
    URB bus id: 1
    Device address: 6
    Endpoint: 0x00, Direction: OUT
        0... .... = Direction: OUT (0)
        .... 0000 = Endpoint number: 0
    URB transfer type: URB_CONTROL (0x02)
    Packet Data Length: 8
    [Response in: 78]
    Control transfer stage: Setup (0)
    [bInterfaceClass: Unknown (0xffff)]
URB setup
    bmRequestType: 0x41
    bRequest: 25
    wValue: 0x0000
    wIndex: 0 (0x0000)
    wLength: 6

0000  1c 00 50 c3 ba 0a 03 80 ff ff 00 00 00 00 08 00   ..P.............
0010  00 01 00 06 00 00 02 08 00 00 00 00 41 19 00 00   ............A...
0020  00 00 06 00                                       ....

No.     Time           Source                Destination           Protocol Length Info
     78 0.004936       1.6.0                 host                  USB      34     URB_CONTROL out

Frame 78: 34 bytes on wire (272 bits), 34 bytes captured (272 bits) on interface 0
USB URB
    [Source: 1.6.0]
    [Destination: host]
    USBPcap pseudoheader length: 28
    IRP ID: 0xffff80030abac350
    IRP USBD_STATUS: USBD_STATUS_SUCCESS (0x00000000)
    URB Function: URB_FUNCTION_CONTROL_TRANSFER (0x0008)
    IRP information: 0x01, Direction: PDO -> FDO
        0000 000. = Reserved: 0x00
        .... ...1 = Direction: PDO -> FDO (0x1)
    URB bus id: 1
    Device address: 6
    Endpoint: 0x00, Direction: OUT
        0... .... = Direction: OUT (0)
        .... 0000 = Endpoint number: 0
    URB transfer type: URB_CONTROL (0x02)
    Packet Data Length: 6
    [Request in: 77]
    [Time from request: 0.000131000 seconds]
    Control transfer stage: Data (1)
    [bInterfaceClass: Unknown (0xffff)]
CONTROL response data: 000000001113

0000  1c 00 50 c3 ba 0a 03 80 ff ff 00 00 00 00 08 00   ..P.............
0010  01 01 00 06 00 00 02 06 00 00 00 01 00 00 00 00   ................
0020  11 13                                             ..

No.     Time           Source                Destination           Protocol Length Info
     79 0.004937       1.6.0                 host                  USB      28     Unknown type 19 Status

Frame 79: 28 bytes on wire (224 bits), 28 bytes captured (224 bits) on interface 0
USB URB
    [Source: 1.6.0]
    [Destination: host]
    USBPcap pseudoheader length: 28
    IRP ID: 0xffff80030abac350
    IRP USBD_STATUS: USBD_STATUS_SUCCESS (0x00000000)
    URB Function: URB_FUNCTION_CONTROL_TRANSFER (0x0008)
    IRP information: 0x01, Direction: PDO -> FDO
        0000 000. = Reserved: 0x00
        .... ...1 = Direction: PDO -> FDO (0x1)
    URB bus id: 1
    Device address: 6
    Endpoint: 0x00, Direction: OUT
        0... .... = Direction: OUT (0)
        .... 0000 = Endpoint number: 0
    URB transfer type: URB_CONTROL (0x02)
    Packet Data Length: 0
    [Request in: 77]
    [Time from request: 0.000132000 seconds]
    Control transfer stage: Status (2)

0000  1c 00 50 c3 ba 0a 03 80 ff ff 00 00 00 00 08 00   ..P.............
0010  01 01 00 06 00 00 02 00 00 00 00 02               ............

No.     Time           Source                Destination           Protocol Length Info
     80 0.004947       host                  1.6.0                 USB      36     URB_CONTROL out

Frame 80: 36 bytes on wire (288 bits), 36 bytes captured (288 bits) on interface 0
USB URB
    [Source: host]
    [Destination: 1.6.0]
    USBPcap pseudoheader length: 28
    IRP ID: 0xffff80030abac350
    IRP USBD_STATUS: USBD_STATUS_SUCCESS (0x00000000)
    URB Function: URB_FUNCTION_CONTROL_TRANSFER (0x0008)
    IRP information: 0x00, Direction: FDO -> PDO
        0000 000. = Reserved: 0x00
        .... ...0 = Direction: FDO -> PDO (0x0)
    URB bus id: 1
    Device address: 6
    Endpoint: 0x00, Direction: OUT
        0... .... = Direction: OUT (0)
        .... 0000 = Endpoint number: 0
    URB transfer type: URB_CONTROL (0x02)
    Packet Data Length: 8
    [Response in: 81]
    Control transfer stage: Setup (0)
    [bInterfaceClass: Unknown (0xffff)]
URB setup
    bmRequestType: 0x41
    bRequest: 19
    wValue: 0x0000
    wIndex: 0 (0x0000)
    wLength: 16

0000  1c 00 50 c3 ba 0a 03 80 ff ff 00 00 00 00 08 00   ..P.............
0010  00 01 00 06 00 00 02 08 00 00 00 00 41 13 00 00   ............A...
0020  00 00 10 00                                       ....

No.     Time           Source                Destination           Protocol Length Info
     81 0.005092       1.6.0                 host                  USB      44     URB_CONTROL out

Frame 81: 44 bytes on wire (352 bits), 44 bytes captured (352 bits) on interface 0
USB URB
    [Source: 1.6.0]
    [Destination: host]
    USBPcap pseudoheader length: 28
    IRP ID: 0xffff80030abac350
    IRP USBD_STATUS: USBD_STATUS_SUCCESS (0x00000000)
    URB Function: URB_FUNCTION_CONTROL_TRANSFER (0x0008)
    IRP information: 0x01, Direction: PDO -> FDO
        0000 000. = Reserved: 0x00
        .... ...1 = Direction: PDO -> FDO (0x1)
    URB bus id: 1
    Device address: 6
    Endpoint: 0x00, Direction: OUT
        0... .... = Direction: OUT (0)
        .... 0000 = Endpoint number: 0
    URB transfer type: URB_CONTROL (0x02)
    Packet Data Length: 16
    [Request in: 80]
    [Time from request: 0.000145000 seconds]
    Control transfer stage: Data (1)
    [bInterfaceClass: Unknown (0xffff)]
CONTROL response data: 00000000000000003200000034000000

0000  1c 00 50 c3 ba 0a 03 80 ff ff 00 00 00 00 08 00   ..P.............
0010  01 01 00 06 00 00 02 10 00 00 00 01 00 00 00 00   ................
0020  00 00 00 00 32 00 00 00 34 00 00 00               ....2...4...

No.     Time           Source                Destination           Protocol Length Info
     82 0.005092       1.6.0                 host                  USB      28     Unknown type 13 Status

Frame 82: 28 bytes on wire (224 bits), 28 bytes captured (224 bits) on interface 0
USB URB
    [Source: 1.6.0]
    [Destination: host]
    USBPcap pseudoheader length: 28
    IRP ID: 0xffff80030abac350
    IRP USBD_STATUS: USBD_STATUS_SUCCESS (0x00000000)
    URB Function: URB_FUNCTION_CONTROL_TRANSFER (0x0008)
    IRP information: 0x01, Direction: PDO -> FDO
        0000 000. = Reserved: 0x00
        .... ...1 = Direction: PDO -> FDO (0x1)
    URB bus id: 1
    Device address: 6
    Endpoint: 0x00, Direction: OUT
